:020000040000FA
:100000000C941B010C944C010C944C010C944C016D
:100010000C944C010C944C010C944C010C944C012C
:100020000C944C010C944C010C944C010C944C011C
:100030000C944C010C944C010C944C010C944C010C
:100040000C944C010C944C010C944C010C944C01FC
:100050000C944C010C944C010C944C010C94520FD8
:100060000C944C010C94C60F0C949C0F0C944C01F6
:100070000C944C010C944C010C944C010C944C01CC
:100080000C944C010C944C010C944C010C944C01BC
:100090000C944C010C944C010C944C010C944C01AC
:1000A0000C944C010C944C010C944C010C944C019C
:1000B0000C944C010C944C010C944C010C944C018C
:1000C0000C944C010C944C010C944C010C944C017C
:1000D0000C944C010C944C010C944C010C944C016C
:1000E0000C944C010C9460020C9433020C94FD01AE
:1000F0000C94D3010C94F9010C94EF010C94EB01D6
:100100000C9416030C94E1010C94F3010C94CD01B2
:100110000C94C9020C94A7010C94E5010C946F0295
:100120000C94DD010C94AC010C94C6010C94CA0132
:100130000C94D7010C94BE010C9483020C94C20160
:100140000C9444170C949102000022002500280012
:100150002B002E00310034000201000005010801CF
:100160000B0105050505070508080808020202023B
:100170000A0A080804040404010101010101010143
:100180000303030303030303040707070C0C0C0C0E
:100190000C0C0C0C020202020606060606060606F7
:1001A0000B0B0B0B0B0B0B0B010210202008081084
:1001B00020401020408002010201080402010102D7
:1001C00004081020408080402010080402018004B0
:1001D000020180402010080402010804020101020B
:1001E0000408102040800102040810204080000014
:1001F0000A0B02090C0D0E080703040100000000A1
:1002000000000000000000000000000000000000EE
:1002100000000000000000000000121110000000AB
:1002200000000000000000000000000000000000CE
:1002300000000000441711241FBECFEFDFEFDEBF28
:10024000CDBF00E00CBF15E0A0E0B2E0EEEBF1E3C3
:1002500000E00BBF02C007900D92A630B107D9F79E
:1002600029E0A6E0B5E001C01D92AC36B207E1F787
:1002700011E0CBE1D1E000E006C021970109802F19
:10028000FE010E947117CA31D10780E00807A9F763
:100290000E94FC0F0C94DD180C940000FC0181E01E
:1002A00080838283148216821782108611861286BA
:1002B0001386148615861786118A128A138A148A61
:1002C000158A168A178A108E128E148E168E178E25
:1002D00010A211A212A213A214A215A217A210A674
:1002E00011A612A613A614A615A616A60895282FC1
:1002F00030E0F901E251FE4F9491F901E855FE4FCB
:1003000044912E593E4FF9012491222309F435C01E
:10031000992311F191509231F8F4E92FF0E08827F8
:10032000EB56FE4F8F4F0C947117C601CA01A701FF
:10033000BE01C201AC01CD01D301D701DD01E10154
:10034000E501EB01EF01AC01F301F901FD01809141
:1003500080008F7780938000E22FF0E0EE0FFF1F88
:10036000E85BFE4FA591B4918FB7F894EC916111C1
:1003700048C040954E234C938FBF089580918000D4
:100380008F7DE8CF80918000877FE4CF84B58F7721
:1003900084BDE2CF84B58F7DFBCF8091B0008F7795
:1003A0008093B000D9CF8091B0008F7DF9CF80913C
:1003B00090008F7780939000CFCF809190008F7DB9
:1003C000F9CF80919000877FF5CF8091A0008F7743
:1003D0008093A000C1CF8091A0008F7DF9CF809144
:1003E000A000877FF5CF809120018F778093200137
:1003F000B3CF809120018F7DF9CF80912001877F3D
:10040000F5CF4E2BB8CF8230910538F0880F991F69
:10041000880F991F05970197F1F708953FB7F89452
:100420008091640990916509A0916609B09167096E
:1004300026B5A89B05C02F3F19F00196A11DB11D3F
:100440003FBFBA2FA92F982F8827BC01CD01620F7B
:10045000711D811D911D42E0660F771F881F991F36
:100460004A95D1F70895AF92BF92CF92DF92EF9263
:10047000FF920F931F93CF93DF936C017B018B014E
:10048000040F151FEB015E01AE18BF08C017D1079E
:1004900059F06991D601ED91FC910190F081E02D28
:1004A000C6011995892B79F7C501DF91CF911F916D
:1004B0000F91FF90EF90DF90CF90BF90AF90089595
:1004C000FC01538D448D252F30E0842F90E0821B5A
:1004D000930B541710F0CF96089501970895FC01DF
:1004E000918D828D981761F0A28DAE0FBF2FB11D37
:1004F0005D968C91928D9F5F9F73928F90E008958F
:100500008FEF9FEF0895FC01918D828D981731F048
:10051000828DE80FF11D858D90E008958FEF9FEF9C
:100520000895FC01918D228D892F90E0805C9F4F72
:10053000821B91098F73992708958FEF97E00E948E
:10054000910221E0892B09F420E0822F0895FC011B
:10055000A48DA80FB92FB11DA35ABF4F2C91848D24
:1005600090E001968F739927848FA689B7892C9381
:10057000A089B1898C91837080648C93938D848DD4
:10058000981306C00288F389E02D80818F7D8083D7
:100590000895EF92FF920F931F93CF93DF93EC0197
:1005A00081E0888F9B8D8C8D98131AC0E889F9891A
:1005B000808185FF15C09FB7F894EE89FF8960831D
:1005C000E889F98980818370806480839FBF81E09E
:1005D00090E0DF91CF911F910F91FF90EF900895E0
:1005E000F62E0B8D10E00F5F1F4F0F731127E02EBB
:1005F0008C8D8E110CC00FB607FCFACFE889F989F3
:10060000808185FFF5CFCE010E94A702F1CFEB8D4F
:10061000EC0FFD2FF11DE35AFF4FF0829FB7F894C6
:100620000B8FEA89FB8980818062CFCFCF93DF93E4
:10063000EC01888D8823B9F0AA89BB89E889F989FA
:100640008C9185FD03C0808186FD0DC00FB607FC2F
:10065000F7CF8C9185FFF2CF808185FFEDCFCE0162
:100660000E94A702E9CFDF91CF91089580E090E04A
:10067000892B29F00E949D0281110E94000080E0D8
:1006800090E0892B49F080E090E0892B29F00E94CE
:10069000000081110E94000080E090E0892B49F069
:1006A00080E090E0892B29F00E94000081110E94D7
:1006B000000080E090E0892B49F080E090E0892BF9
:1006C00029F00E94000081110C9400000895FC01A3
:1006D000838182709081911104C0811116C01282B1
:1006E0000895811102C081E08283878181FD08C065
:1006F0008481882319F081E09085911180E08683C0
:10070000818581FD02C0848180870895FC018481F8
:100710009581A681B7814081518162817381811564
:1007200026E3920725E6A20724ECB2073CF0141654
:100730001506160617068CF4B7FF0FC04150510975
:100740006109710940835183628373839653A5467F
:10075000B44C84839583A683B78384819581A681D5
:10076000B781408151816281738181302AEC920787
:100770002AE9A2072BE3B2073CF477FF14C018164E
:1007800019061A061B067CF44F5F5F4F6F4F7F4FB1
:1007900040835183628373839A5CAA49BB438483F9
:1007A0009583A683B7830895880F991F880F991F93
:1007B000FC01EA5FFB4F828193818A309105B9F099
:1007C00040F48230910569F0039771F090E080E089
:1007D00008958B32910541F08733910511F00F9701
:1007E000A9F781E090E0089582E090E0089588E024
:1007F00090E00895880F991F880F991FDC01AA5F68
:10080000BB4FED91FC91119712968D919C918A307E
:10081000910579F030F40297029758F0F0E0E0E0AB
:1008200008C08B32910539F08733910521F00F977D
:10083000A9F7CF010895828181FF02C03396F9CFD5
:100840000190F081E02DF5CF20910D05209530E04D
:10085000F901EA5FFC4F908190952A5F3D4FD901E5
:100860008C9140910B0550910C0542505109EDE0DF
:10087000F5E031969F012D5035402417350770F46F
:1008800020819227292F30E0D901AA5FBC4F9C918B
:1008900098272A5F3D4FD9018C91EBCF089523E033
:1008A00030E030930C0520930B05EDE0F5E09091DE
:1008B000EC07908380588183628308950F931F9380
:1008C000582F577001E010E020E030E004C0000F26
:1008D000111F221F331F5A95D2F723E09695879553
:1008E0002A95E1F79927E091F607F091F70766233B
:1008F00021F0E091FC07F091FD07E80FF91F8081DE
:10090000442329F0082B00831F910F91089500952F
:100910000823F9CFCF93DF93CDB7DEB78B8588233C
:1009200021F081E09C85911101C080E0DF91CF91A1
:100930000895CF92DF92EF92FF920F931F93CF9380
:10094000DF93CDB7DEB789899A89AB89BC894D8998
:100950005E896F89788D098D1A8D2B8D3C8DCD8C9C
:10096000DE8CEF8CF8A080179107A207B30759F42B
:100970004C195D096E097F0914161506160617062F
:100980005CF081E00AC0801B910BA20BB30B181620
:1009900019061A061B06ACF780E0DF91CF911F9174
:1009A0000F91FF90EF90DF90CF9008952F923F929C
:1009B0004F925F926F927F928F929F92AF92BF926F
:1009C000CF92DF92EF92FF920F931F93CF93DF931B
:1009D000CDB7DEB7C354D1090FB6F894DEBF0FBE52
:1009E000CDBF10E000E0F801EE0FFF1FE458F84F14
:1009F0000190F081E02D309749F041E08081811134
:100A000001C040E060E0C8010E945E040F5F1F4F1C
:100A10000833110541F7E090ED07F090EE070CE385
:100A200017E019AF08AF8701005C1F4FF7012CE3F7
:100A300037E0D9018D919D919D01009729F0DC014E
:100A40008D919C919183808332960E171F0789F7B1
:100A5000D12CC12CF601EE0FFF1FE453F94F01908A
:100A6000F081E02D309749F041E08081811101C093
:100A700040E061E0C6010E945E04BFEFCB1ADB0AD2
:100A8000E8E3CE16D10431F74CE856E0E091F907DF
:100A9000F091FA079F01205C3F4FDA018D919D9103
:100AA000AD01009729F0DC018D919C9191838083A9
:100AB0003296E217F30789F7E4E6F6E0FBAFEAAF18
:100AC000F80108E6E00EF11C24E636E0D9018D912C
:100AD0009D919D01009729F0DC018D919C9191835E
:100AE00080833296EE16FF0689F7ECE3F6E0FDAF61
:100AF000ECAFE091F007F091F1079F01205B3F4FD1
:100B00000CE316E0D8018D919D918D01009749F07D
:100B1000DC014D915D916D917C91408351836283A5
:100B2000738334962E173F0769F7E4E1F6E0FFAFD1
:100B3000EEAFE091F307F091F4079F0120563F4F8D
:100B400084E196E0DC01CD90DD90CD01C114D104AB
:100B5000F1F0D601EC901196FC90119712960C9141
:100B6000129713961C91139714967C9114971596CF
:100B70006C91159716965C91169717964C91E0829A
:100B8000F182028313837483658356834783389687
:100B90002E173F07B9F610920C0510920B058091A5
:100BA000120690911306DC01ED91FC910084F18511
:100BB000E02D1995892B09F483C08091120690913C
:100BC0001306DC01ED91FC910084F185E02D19956F
:100BD00020910B0530910C05A0911206B0911306DF
:100BE000ED91FC9111970084F185E02D28173907CC
:100BF00068F4CD01199590930C0580930B058091B5
:100C00000F06909110060E940302D7CFCD011995CF
:100C1000813091400CF054C08091120690911306DF
:100C2000DC01ED91FC910084F185E02D199506978A
:100C30000CF446C04DE0842E45E0942E8401E090F3
:100C40000B05F0900C05C8018D5095408E159F0541
:100C500078F48091120690911306DC01ED91FC91DD
:100C60000284F385E02D1995F80181938F01E7CF78
:100C700010910E058FEB810F853080F00E942404C7
:100C80009701235F3A4FF901329740812150310992
:100C9000D9012C91342F2817390791F490910D0523
:100CA0008091EC07981709F4CDC0809112069091BD
:100CB0001306DC01ED91FC910680F781E02D19957A
:100CC0004091F6075091F70730E020E0F901EE0F70
:100CD000FF1FE458F84F0190F081E02D309799F014
:100CE000D90183E0B695A7958A95E1F7A40FB51FC2
:100CF0008C9190E0622F677002C0959587956A95F8
:100D0000E2F7817080832F5F3F4F28333105F1F682
:100D10008091ED079091EE07BC01605C7F4FDC0194
:100D2000E8ADF9AD21913191F9AFE8AF2115310569
:100D300031F04D915C911197F901518340831296E6
:100D40006A177B0769F7FB0188599F4FAAADBBADB6
:100D50004D915D91BBAFAAAF4115510529F020819E
:100D60003181DA012D933C9332968E179F0771F7EC
:100D7000E091F007F091F107CF01805B9F4FACADA0
:100D8000BDAD2D913D91BDAFACAF2115310551F0F9
:100D90004081518162817381D9014D935D936D933F
:100DA0007C93139734968E179F0749F7E091F307CA
:100DB000F091F407CF0180569F4FAEADBFADED90DF
:100DC000FD90BFAFAEAFE114F104F1F000811181ED
:100DD000728163815481458136812781D7010C93CB
:100DE00011961C93119712967C93129713966C93FD
:100DF000139714965C93149715964C931597169623
:100E00003C93169717962C9338968E179F07A9F642
:100E1000CD5BDF4F0FB6F894DEBF0FBECDBFDF91C5
:100E2000CF911F910F91FF90EF90DF90CF90BF90E7
:100E3000AF909F908F907F906F905F904F903F907A
:100E40002F900895B2E0EB1AF108F0920C05E092B1
:100E50000B0580910F0590911005382E292E60907A
:100E6000110570901205762467247624D090110520
:100E70002091130530E01F3009F48AC5A0F5133026
:100E800009F480C158F4113009F4F5C3123009F4A3
:100E900084C461E070E0812F90E022C0153009F435
:100EA00057C508F40BC51630A1F72091EF078091C4
:100EB000F20790E0880F991FE22FF0E08E0F9F1F3E
:100EC0004091F50704E0409FA0011124480F591FED
:100ED0002416350608F449C062E070E086E090E030
:100EE0000E944F044FC0123409F4E2C698F4103146
:100EF00009F462C2113469F684E090E090930C0525
:100F000080930B0510930E0510920F0583E38093D9
:100F1000100538C0143409F445C608F4DDC515348D
:100F200009F0B7CF8D3ABEED9B0709F0A8C7109224
:100F30000A0585E480930E058EE780930F0581E214
:100F4000E4EEF4E0DE01119601900D928A95E1F74E
:100F5000FE013196A0E1B5E081919D012D50354013
:100F6000882309F49AC78D93F7CF2E163F06D8F43D
:100F7000220C331CE091ED07F091EE07E20DF31D1A
:100F80007182608280910B0590910C0502968130F0
:100F9000914008F45AC580910E0564E070E090E03D
:100FA0000E944F0452C528163906F0F5A30170E0DF
:100FB00060E08091F0079091F10720FC1CC0910146
:100FC0002E1B3F0BF901EE0FFF1FEC7FF370E80FB4
:100FD000F91F80819181A281B381AA27BB27BA0121
:100FE00055274427842B952BA62BB72B80839183E1
:100FF000A283B383C7CFE095F095E20DF31DEE0F0A
:10100000FF1FEC7FF370E80FF91F60807180828012
:1010100093806624772446295729682979294083B3
:10102000518362837383AECF9101237033274301D1
:10103000B12CA12CC12CD12C7601E091F307F091B9
:10104000F4072115310549F5281A390A220C331CF9
:1010500038EF232237E03322E20DF31D5080618008
:1010600072801381B481A581940140E050E060E07A
:1010700070E080E090E000E30E947917252920834A
:10108000632A6182742A7282152B1383B62BB48370
:10109000A72BA5838683978375CF2130310541F532
:1010A000AFEF2A1A3A0A281A390A220C331CB8EF71
:1010B0002B22B7E03B22E20DF31D5080618072804D
:1010C0001381B681A7819401A501B601C70100E291
:1010D0000E947917522A5082632A6182742A72828E
:1010E000152B1383648375838B2B86839A2BD3CF25
:1010F0002230310529F502E0200E311C281A390A68
:10110000220C331C18EF212217E03122E20DF31DCF
:101110005080618074801581B681A7819401A501FA
:10112000B601C70100E10E947917522A5082632A52
:10113000618242835383762A7482172B1583D4CF1E
:1011400023E0220E311C281A390A220C331C38EFF6
:10115000232237E03322E20DF31D52814381348193
:10116000258196818781808291825A2952834B29D9
:1011700043833C2934832D2925839E2996838F29F7
:10118000878300CFC301019763E070E08D3791053D
:10119000C8F46101C60CD71C4091EF07E091F2073B
:1011A000F0E0EE0FFF1FE40FF11D8091F507A4E0C2
:1011B0008A9FC00111248E0F9F1FC816D90628F0E0
:1011C00062E070E083E090E08BCE660C771CC30198
:1011D000039690930C0580930B05ADE0B5E0119656
:1011E0009D012D5035402817390710F41C92F7CF78
:1011F00093E090930E05835080930F05E090F307E2
:10120000F090F407A090F007B090F107A091ED07DF
:10121000B091EE07BAA7A9A7A42FB0E0BBABAAABC9
:1012200083E090E02C014E1A5F0A3D0160947094B7
:10123000C214D30409F4A6CEAAA9BBA92A163B0658
:1012400060F49101220F331FA9A5BAA52A0F3B1FF5
:10125000D9018C9111963C911AC02E163F0670F55B
:1012600020FC22C0C101AAA9BBA98A1B9B0B880F25
:10127000991F8C7F93708A0D9B1DDC014D915D91B0
:101280006D917C91AB0166277727842F352FD40190
:1012900013963C93139714968C93B2E08B0E911C8B
:1012A0000FEF201A300AC4CF9301220D331D220FF5
:1012B000331F2C7F33702A0D3B1DCACF8101037071
:1012C00011270115110521F581010E1B1F0B000FC0
:1012D000111F087F17700E0D1F1DD8012C9111963C
:1012E0003C91119712964C91129713965C9113971B
:1012F00014966C91149715967C91159716968C916F
:10130000169717969C9100E30E949417822FBFCFE7
:101310000130110511F50E1B1F0B020D131D000FDF
:10132000111F087F17700E0D1F1DD8012C911196EB
:101330003C91119712964C91129713965C911397CA
:1013400014966C91149715967C91159716968C911E
:10135000169717969C9100E2D7CF0230110511F530
:101360000E1B1F0B020D131D000F111F087F17709E
:101370000E0D1F1DD8012C9111963C9111971296BC
:101380004C91129713965C91139714966C91149745
:1013900015967C91159716968C91169717969C9199
:1013A00000E1B2CF9201220D331D220F331F287F9F
:1013B00037702E0D3F1D4CCFC30101978B37910520
:1013C00030F4C301880F991F2817390729F063E00B
:1013D00070E080E190E084CDD101A60DB71DBDABDA
:1013E000ACAB8091EF074090F207512C440C551C98
:1013F000A82EB12C4A0C5B1C2091F507B4E02B9F62
:1014000090011124240D351DECA9FDA9E217F30765
:1014100018F062E070E0DDCF26E030E030930C059C
:1014200020930B0510930E0530920F0520921005A6
:1014300010921105609212056090F3077090F40706
:10144000C090F007D090F107DFAACEAA4091ED0737
:101450005091EE079101220F331F7A01E20EF31E25
:10146000FBAAEAAAD101A419B509C50180959095F6
:10147000FC01E40DF51D2296FFAFEEAF229762014D
:10148000CA18DB082496DFAECEAE2497ECA8FDA8E0
:101490002E143F0409F4D9C2F40147818085542FEA
:1014A000482F2A143B0488F4EAA9FBA951834083FE
:1014B000EAA9FBA93296FBABEAAB1196FFEF2F1A14
:1014C0003F0A02E0800E911CE1CF24143504C8F5D8
:1014D00070E060E020FC20C02496EEADFFAD2497C4
:1014E000EA0FFB1FEE0FFF1FEC7FF370CEA8DFA803
:1014F000EC0DFD1D008111812281338122273327CC
:10150000BA0155274427402B512B622B732B408364
:10151000518362837383CCCF2296EEADFFAD2297C9
:10152000EA0FFB1FEE0FFF1FEC7FF370EEA8FFA882
:10153000EE0DFF1D008111812281338100271127CB
:10154000E2CFC101837099276A01F12CE12C00E000
:1015500010E09801C9A6DAA6EBA6FCA60DA71EA767
:101560002FA738ABFD01009741F5EE0FFF1FE87F75
:10157000F770E60DF71DD080D9AAC180D280E38034
:10158000F480158129A53AA540E050E060E070E0C4
:1015900080E090E000E30E94791709A9202B2083C6
:1015A0003C2931834D2942835E295383F62AF482F4
:1015B000172B1583868397837BCF8130910541F567
:1015C0003196EE0FFF1FE87FF770E60DF71D1081D3
:1015D00019ABC180D280E380F680178129A53AA596
:1015E00040E050E060E070E080E090E000E20E94C7
:1015F000791709A9202B20833C2931834D29428367
:10160000E52AE382648375838F298683912BD3CF68
:10161000029729F53296EE0FFF1FE87FF770E60D6F
:10162000F71D108119ABC180D480E580F680178149
:1016300029A53AA540E050E060E070E080E090E04D
:1016400000E10E94791709A9202B20833C293183CE
:1016500042835383D62AD482E72AE582D5CF3396B4
:10166000EE0FFF1FE87FF770E60DF71D19A5108339
:101670002AA521831DCFC301019763E070E0803D5F
:10168000974068F52091F807C101860D971D62E02B
:1016900070E02817190618F1C30113E09695879595
:1016A0001A95E1F79C012D5F3F4F30930C05209375
:1016B0000B05930127703327232B29F00496909371
:1016C0000C0580930B0580910B0590910C05EDE0C6
:1016D000F5E0813021E0920728F064E070E081E0DD
:1016E00090E0FECB31969F012D50354028173907E9
:1016F00010F41082F7CF91E090930E058350809301
:101700000F050091F6071091F70770E060E020E008
:10171000C12CD12C7601C394D701C601022E04C07E
:10172000880F991FAA1FBB1F0A94D2F789A79AA7EF
:10173000ABA7BCA7FB0133E0F695E7953A95E1F737
:10174000E05FFA4F3081A101A3E056954795AA9535
:10175000E1F74F715527400F511FDA014C9150E0CE
:10176000B22DB77002C055954795BA95E2F789A595
:1017700040FF0FC0832B80832F5F283009F420E0C7
:10178000EFEF2E1A3E0A6F5F7F4F6616770621F63F
:10179000F9CB809538233083EFCFC301019763E005
:1017A00070E0803D974068F52091FE07C101860DED
:1017B000971D62E070E02817190618F1C30123E0B5
:1017C000969587952A95E1F79C012D5F3F4F3093C1
:1017D0000C0520930B05930127703327232B29F049
:1017E000049690930C0580930B0580910B059091C6
:1017F0000C05EDE0F5E0813001E0900728F064E0B1
:1018000070E082E090E06CCB31969F012D50354026
:101810002817390710F41082F7CF92E090930E0545
:10182000835080930F056091FC077091FD0750E095
:1018300040E010E0C12CD12C7601C394D701C60141
:10184000012E04C0880F991FAA1FBB1F0A94D2F74C
:1018500089A79AA7ABA7BCA7FA0103E0F695E7957D
:101860000A95E1F7E05FFA4F0081910183E0369538
:1018700027958A95E1F7260F372F311DD9012C9135
:1018800030E0B22DB77002C035952795BA95E2F7D2
:1018900089A520FF0FC0802B80831F5F183009F4BB
:1018A00010E0EFEF2E1A3E0A4F5F5F4F6416750689
:1018B00029F668CB809508230083EFCFC3010197F9
:1018C00063E070E08D37910550F42091FB07C10172
:1018D000860D971D2817190628F462E070E084E051
:1018E00090E0FECAC301880F991F039690930C05E0
:1018F00080930B05EDE0F5E031969F012D503540CA
:101900002817390710F41082F7CF94E090930E0552
:10191000835080930F05220C331CE091F907F0915E
:10192000FA07E20DF31D01E0601A710812E0810E62
:10193000911C2FEF6216720609F424CB80819181ED
:101940003296D40111969C93119712968C93EBCFFB
:101950006114BFEF7B0629F063E070E0611471044D
:1019600049F48091F8078150990B8215930528F46A
:1019700062E070E085E090E0B3CA41E06114EFEF0F
:101980007E0609F040E060E0C1010E945E04FACAF0
:10199000A301F3E056954795FA95E1F7842FB3013B
:1019A00067707727672B11F081E0840FA301415006
:1019B0005109403B574018F48217130629F063E0A1
:1019C00070E08FE090E08CCA2091F807C101860D8D
:1019D000971D2817190618F462E070E0F2CF86E030
:1019E00090E090930C0580930B058FE080930E059B
:1019F00030920F0520921005709211056092120529
:101A000010E000E0F12CF80173E0F695E7957A9587
:101A1000E1F7E35FFA4F478150E00F2C02C0559584
:101A200047950A94E2F7417060E0C101800F911F71
:101A30000E945E04F394E8E0CE2EFC1001C0F12C6D
:101A40000F5F1F4F60167106F1F600910B051091A4
:101A50000C05780122E0E20EF11CF0920C05E092F8
:101A60000B050E942404F801E35FFA4F9083818301
:101A70008091110687FD09C061E00E947701809185
:101A80000D0690910E060E9403028091120690911D
:101A90001306DC01ED91FC910280F381E02DA7019A
:101AA0006DE075E019958091120690911306DC01A6
:101AB000ED91FC910680F781E02D199580910D063E
:101AC00090910E060E9403028091110687FDF8C8CE
:101AD00060E00E947701F4C803E32016310408F0A7
:101AE00056C013E36116710408F051C06214730408
:101AF00008F44DC0710168E1A62E65E0B62ED12C28
:101B0000C12CC7010E94D4034C018601080F191F84
:101B1000C8010B9681309140C0F5C7010E94FA03BD
:101B2000A401BC01C5010E94D418A80CB91CC701AE
:101B30000196680117016816790628F5C80107960D
:101B400090930C0580930B0583E480930E058EE73C
:101B500080930F0510921005209211058091520973
:101B600090915309209154093091550930931205F1
:101B70002093130590931405809315051093160573
:101B800000931705FFC97C01BCCF8601D7CF83E046
:101B900090E090930C0580930B0583E480930E05F1
:101BA00081E828C035E123163104D8F4CE0101962E
:101BB0002C01FC01D12CC12C92E0890E911C2C141B
:101BC0003D04D9F0D40112968C91129713969C91F2
:101BD00089279827892781939193BFEFCB1ADB0A36
:101BE000EBCF83E090E090930C0580930B0510936E
:101BF0000E0582E880930F05C5C9B12CA12C19A64A
:101C0000712C612C0BE010E0CA14DB0469F1F201C5
:101C1000E190F1902F01F3E3EF16F10440F083E03F
:101C200090E090930C0580930B0584E4B7CFC70137
:101C30000E94D4034C011801280E391E21E02216FF
:101C4000320690F4C7010E94FA03A401BC01C80146
:101C5000835F9A4F0E94D418680C791C3FEFA31A37
:101C6000B30AE9A68101D0CF10930C0500930B05B0
:101C700084E480930E058EE780930F051092100583
:101C8000C9A4C092110580915209909153092091E5
:101C90005409309155093093120520931305909300
:101CA00014058093150570921605609217056AC990
:101CB00003E32016310450F480911205909113052E
:101CC0009827892798278A3F910540F083E090E084
:101CD00090930C0580930B0582E460CF8101000F87
:101CE000111F000F111FF801EA5FFB4FE280F38024
:101CF00080910A058130F9F0F801EA5FFB4F00811D
:101D00001181D11038C0FAE0EF16F10409F4B1C026
:101D100008F099C032E0E316F10409F4A2C083E0B0
:101D2000E816F104F1F5D80112968C9112978D7F87
:101D300012968C9336C020E1E216F104E9F2C1015B
:101D40000E94D4039C0136952795FC01E35FFA4F6E
:101D5000ADE0B5E03197CD018D50954082179307E6
:101D600058F617968C911797978117969C9317970B
:101D700087831196EFCFC1010E94D4036C013AE032
:101D8000E316F104F1F1C0F492E0E916F10459F11F
:101D9000A60164E175E0C801A3E0EA16F10409F4C4
:101DA0004BC083E090E090930C0580930B0582E498
:101DB00080930E058EE71ECFBBE2EB16F10479F19E
:101DC000E7E3EE16F10459F1FFE0EF16F10449F7ED
:101DD000A60164E175E0C8010E94D418F801818170
:101DE00082608183DECFA60164E175E0C8010E94B4
:101DF000D418D80111968C911197826011968C930A
:101E0000D0CFAC0164E175E0C8010E94D418D801BC
:101E100018968C911897826018968C93C2CFA60161
:101E200064E175E0D8018D919C910E94D418A601BF
:101E300064E175E0C80103960E94D418F80182811C
:101E400082608283AECF9BE2E916F10471F0A7E3D2
:101E5000EA16F10409F467CFBFE0EB16F10409F0CC
:101E6000A0CFF80181818D7FBCCFF80182818D7F69
:101E7000E8CFD80118968C9118978D7FCDCF8E3DE5
:101E80009D4A21F481E080930A0553C883E090E0E5
:101E900090930C0580930B054CC830930C05209350
:101EA0000B0570C81F920F920FB60F9211242F933B
:101EB0003F938F939F93AF93BF93809160099091CD
:101EC0006109A0916209B091630930915F0923E033
:101ED000230F2D3758F50196A11DB11D20935F09E1
:101EE0008093600990936109A0936209B09363099C
:101EF0008091640990916509A0916609B091670984
:101F00000196A11DB11D8093640990936509A0936A
:101F10006609B0936709BF91AF919F918F913F91EF
:101F20002F910F900FBE0F901F90189526E8230F4A
:101F30000296A11DB11DD2CF1F920F920FB60F9224
:101F400011240BB60F922F933F934F935F936F9390
:101F50007F938F939F93AF93BF93EF93FF938FEFF5
:101F600097E00E94A702FF91EF91BF91AF919F91DF
:101F70008F917F916F915F914F913F912F910F9032
:101F80000BBE0F900FBE0F901F9018951F920F92CF
:101F90000FB60F9211240BB60F922F938F939F932E
:101FA000EF93FF93E0910F08F09110088081E0918A
:101FB0001508F091160882FD1DC0908180911808C7
:101FC0008F5F8F7320911908821741F0E0911808F4
:101FD000F0E0E150F84F958F80931808FF91EF9152
:101FE0009F918F912F910F900BBE0F900FBE0F906E
:101FF0001F9018958081F2CFCF93DF93CDB7DEB7D6
:10200000C954D1090FB6F894DEBF0FBECDBF789486
:1020100084B5826084BD84B5816084BD85B58260ED
:1020200085BD85B5816085BD80916E00816080939E
:102030006E00109281008091810082608093810007
:102040008091810081608093810080918000816017
:10205000809380008091B10084608093B100809172
:10206000B00081608093B000809191008260809385
:102070009100809191008160809391008091900007
:102080008160809390008091A10082608093A10084
:102090008091A10081608093A1008091A000816067
:1020A0008093A00080912101826080932101809122
:1020B00021018160809321018091200181608093C2
:1020C000200180917A00846080937A0080917A0068
:1020D000826080937A0080917A00816080937A0098
:1020E00080917A00806880937A001092C10011E09C
:1020F00010939C0810939E081092A0081092A108BB
:102100001092A2081092A3081092A4081092A50899
:102110001092A6081092A7081092A9081092AB0876
:102120008DEA98E00E944E018DED98E00E944E01EC
:1021300010920D0910930F091093110910921309B1
:1021400010921509109217091092190910921C0982
:1021500010921B0910921E09109220091092230957
:10216000109222091093250910932709109229092A
:1021700010922B0910922D0980912E098460809372
:102180002E0910932F0910933109109233091092E0
:102190003509109237098091380984608093380995
:1021A00049E055E050933A094093390910920905E6
:1021B00028E035E030933E0920933D091092080550
:1021C00086E095E0909342098093410910920705BB
:1021D00010920605109246091092480950937D0707
:1021E00040937C0730937F0720937E0790933D07B1
:1021F00080933C07E0910F08F091100882E0808303
:10220000E0910B08F0910C081082E0910D08F0911C
:102210000E0880E1808310921708E0911308F09176
:10222000140886E08083E0911108F0911208808103
:1022300080618083E0911108F091120880818860AC
:102240008083E0911108F09112088081806880837A
:10225000E0911108F091120880818F7D80838FEFCB
:1022600097E090931306809312068FEF80931106E8
:102270008EEE92E09093100680930F0681E49AE030
:1022800090930E0680930D061093EC0784E38093E1
:10229000EF0784E18093F2078093F50788E380934A
:1022A000F80790E29093FB078093FE0787E090E0A9
:1022B0000E94AF179093F7078093F607009709F4F1
:1022C00051C017E0FC01212F11922A95E9F788E609
:1022D00090E00E94AF179093EE078093ED07009770
:1022E00009F440C028E6FC0111922A95E9F780E53F
:1022F00090E00E94AF179093F1078093F00700974A
:1023000089F120E5FC0111922A95E9F780EA90E035
:102310000E94AF179093F4078093F307009711F191
:1023200020EAFC0111922A95E9F787E090E00E94EB
:10233000AF179093FD078093FC07009799F0FC017D
:1023400011921A95E9F780E490E00E94AF179093FC
:10235000FA078093F907009729F020E4FC01119215
:102360002A95E9F710E000E0C801880F991F9C0149
:102370002458384F7901F90180819181892B49F4E2
:1023800081E090E00E94AF17F70191838083FC0108
:1023900010820F5F1F4F0833110531F70091ED07D1
:1023A0001091EE07ECE3F7E090E080E021913191AD
:1023B000232B39F4DF0112979801280F391F2D9331
:1023C0003C9302968034910589F7F12CE12CC701EA
:1023D000880F991F9C012453394F5901F9018081BD
:1023E0009181892B49F481E090E00E94AF17F501BB
:1023F00091838083FC011082FFEFEF1AFF0A28E32C
:10240000E216F10421F72091F9073091FA07ECE880
:10241000F6E090E080E041915191452B39F4DF01E5
:102420001297A901480F591F4D935C93029680346F
:10243000910589F7E4E6F6E090E080E0005C1F4F4C
:1024400021913191232B39F4DF0112979801280F44
:10245000391F2D933C9302968832910589F740915C
:10246000F0075091F107ECE3F6E090E080E0219175
:102470003191232B59F4DF0112979C01220F331F56
:10248000220F331F240F351F2D933C930196843167
:10249000910569F74091F3075091F407E4E1F6E004
:1024A00090E080E021913191232B61F4DF011297BC
:1024B0009C0163E0220F331F6A95E1F7240F351F5B
:1024C0002D933C9301968431910561F780E29EE45F
:1024D000A0E0B0E08093570990935809A093590960
:1024E000B0935A090E940E0260935B0970935C09D5
:1024F00080935D0990935E0911E084E6282E312CCB
:1025000002E0812C91EE992E95EFA92E95E0B92E3F
:102510000E940E0240905B0950905C0960905D093A
:1025200070905E09641975098609970940905709EA
:10253000509058096090590970905A0964157505B2
:102540008605970508F4F5C08091520990915309CA
:10255000A0915409B09155090196A11DB11D809318
:10256000520990935309A0935409B093550980914F
:10257000A80881FD10C01092A0081092A108109226
:10258000A2081092A3088092A4089092A508A09295
:10259000A608B092A70880919F08827090919C082D
:1025A0009111E0C0811102C010929E0880914709EC
:1025B00081FD19C09091A90880913B0981FFAAC3B0
:1025C00080913C091F929F938F931F920F931F92AC
:1025D0001F921F930E948A04809346090FB6F894B5
:1025E000DEBF0FBECDBF8091490981FD19C090911A
:1025F000A90880913F0981FF93C3809140091F92F0
:102600009F938F931F920F931F921F921F930E946D
:102610008A04809348090FB6F894DEBF0FBECDBF81
:102620008091140981FD04C08091460980931309AB
:102630008091160981FD04C0809148098093150995
:1026400080911D0981FD04C030921C0920921B0954
:1026500080911209827090910F09911167C38111C5
:1026600002C0109211098091430981FD0AC0809136
:10267000220990912309E0914109F0914209918347
:10268000808380914E0990914F09A0915009B0919B
:102690005109AC01BD01535D6E4C7E4F4115EAEC12
:1026A0005E07EAE96E07EBE37E0708F0C6C34093D6
:1026B0004E0950934F0960935009709351090E943D
:1026C000D60480915609811118C0109356090E94B2
:1026D0000E02409057095090580960905909709027
:1026E0005A09641975098609970960935B09709303
:1026F0005C0980935D0990935E0980915B099091DC
:102700005C09A0915D09B0915E0940915709509113
:1027100058096091590970915A09840F951FA61F95
:10272000B71F80935B0990935C09A0935D09B093F8
:102730005E090E940E0240905B0950905C09609017
:102740005D0970905E096419750986099709603101
:1027500077428105910510F00E94D60488950E9469
:102760003603D6CE811102C010939E088091B20824
:1027700081FD04C08091AB088093B1088091BB08B3
:1027800081FD09C088E0E0EAF8E0A3EBB8E0019041
:102790000D928A95E1F78091B00882709091AD0812
:1027A000911140C0811102C01092AF088091AA0817
:1027B00081FD04C08091BC088093A90880910E0916
:1027C00081FD07C081E09091BC08911180E0809369
:1027D0000D098091E20881FD04C080910D0980936C
:1027E000E1088091EB0881FD09C088E0E0EAF8E0AB
:1027F000A3EEB8E001900D928A95E1F78091E00890
:1028000082709091DD08911148C1811102C010922F
:10281000DF088091AC0881FDC9CE8091EC088093DF
:10282000AB08C4CE811102C01093AF088091D308C9
:1028300081FD09C088E0EAE4F9E0ABECB8E0019082
:102840000D928A95E1F73091C7082A963FAF2A97F3
:102850008091B10831111EC09091C90891110DC32A
:102860008823D1F08091C80881FF1093C708809118
:10287000BD0881FF1092BC088091DC0881FD2AC050
:1028800088E0EBECF8E0A4EDB8E001900D928A95B9
:10289000E1F720C0811127C08091C60881FD10C0DA
:1028A0001092BE081092BF081092C0081092C10882
:1028B0001092C2081092C3081092C4081092C50862
:1028C0008091BD0881FF1092BC088091C80881FFEB
:1028D0001092C7088091CA0881FD68CF8091B10825
:1028E0008093C90863CF2A968FAD2A97813091F7DC
:1028F0004090D8085090D9086090DA087090DB08B2
:102900008091B7089091B808A091B908B091BA0821
:102910004091B3085091B4086091B5087091B60821
:10292000C090D408D090D508E090D608F090D70891
:102930004C0D5D1D6E1D7F1D498B5A8B6B8B7C8BE7
:10294000840D951DA61DB71D8D8B9E8BAF8BB88FEB
:10295000CE0141960E94860388E0FE017196DE0159
:10296000D99601900D928A95E1F788E0FE01F996DB
:10297000DE01AF5BBF4F01900D928A95E1F700D069
:1029800000D01F921F92ADB7BEB7119688E0EBEC56
:10299000F8E001900D928A95E1F700D000D01F92E7
:1029A0001F92ADB7BEB7119688E0FE01EF5BFF4FF7
:1029B00001900D928A95E1F71F920F931F921F923B
:1029C0002A969FAD2A979F930E9499040FB6F89478
:1029D000DEBF0FBECDBF9091C608882391F08091D5
:1029E000C80881FF0093C7088091BD0881FF10933C
:1029F000BC0888E0E3EBF8E091FD6CCFAEEBB8E00B
:102A000044CF91FD67CF8091CF089091D008A091DD
:102A1000D108B091D2084090D8085090D908609061
:102A2000DA087090DB084091CB085091CC08609197
:102A3000CD087091CE08C090D408D090D508E09011
:102A4000D608F090D7084C195D096E097F09498BAB
:102A50005A8B6B8B7C8B84199509A609B7098D8BD2
:102A60009E8BAF8BB88FCE0141960E94860388E083
:102A7000FE017196DE01999601900D928A95E1F71B
:102A800088E0FE01B996DE01D19601900D928A95FB
:102A9000E1F788E0FE01F196B1CF811102C01093F9
:102AA000DF088091030981FD09C088E0EAE4F9E0CC
:102AB000ABEFB8E001900D928A95E1F7F091F7083D
:102AC0002A96FFAF2A978091E108F1111AC09091E0
:102AD000F908992309F4D4C1811115C08091F8082F
:102AE00081FF1093F70880910C0981FD25C088E0D3
:102AF000EBEFF8E0A4E0B9E001900D928A95E1F7E0
:102B00001BC0882391F18091F60881FD10C01092BE
:102B1000EE081092EF081092F0081092F10810924F
:102B2000F2081092F3081092F4081092F5088091C0
:102B3000F80881FF1092F7088091ED0881FD0CC024
:102B40008091E1088111E4C081E09091F708913013
:102B500009F080E08093EC088091FA0881FD59CE5D
:102B60008091E1088093F90854CE2A962FAD2A97D8
:102B7000213011F78091080990910909A0910A0963
:102B8000B0910B094090E7085090E8086090E90880
:102B90007090EA084091E3085091E4086091E508DC
:102BA0007091E608C0900409D0900509E0900609EC
:102BB000F09007094C0D5D1D6E1D7F1D498B5A8BD2
:102BC0006B8B7C8B840D951DA61DB71D8D8B9E8BED
:102BD000AF8BB88FCE0141960E94860388E0FE013C
:102BE0007196DE01599601900D928A95E1F788E081
:102BF000FE017996DE01919601900D928A95E1F79A
:102C000000D000D01F921F92ADB7BEB7119688E0DA
:102C1000EBEFF8E001900D928A95E1F700D000D03B
:102C20001F921F92ADB7BEB7119688E0FE01B19614
:102C300001900D928A95E1F71F920F931F921F92B8
:102C40002A963FAD2A973F930E9499040FB6F894B5
:102C5000DEBF0FBECDBF9091F608882369F080914A
:102C6000F80881FF0093F70888E0E3EEF8E091FDB3
:102C700063CFAEEEB8E040CF91FD5ECF8091FF080C
:102C800090910009A0910109B091020940900809B2
:102C90005090090960900A0970900B094091FB0857
:102CA0005091FC086091FD087091FE08C0900409E5
:102CB000D0900509E0900609F09007094C195D09CC
:102CC0006E097F09498B5A8B6B8B7C8B8419950914
:102CD000A609B7098D8B9E8BAF8BB88FCE0141961D
:102CE0000E94860388E0FE017196DE011196019034
:102CF0000D928A95E1F788E0FE013196DE01199682
:102D000001900D928A95E1F788E0FE013996B1CFE6
:102D100081E020CFE0913909F0913A09808152CCCD
:102D2000E0913D09F0913E09808169CC811102C09A
:102D30001093110980912A0981FD04C08091150921
:102D40008093290985E299E00E9467038091340904
:102D500081FD04C080911309809333098FE299E0CB
:102D60000E94670380911709882359F180912409F3
:102D700081FD04C0109223091092220980911F093D
:102D800081FD0FC081E040912209509123092091DB
:102D90001B0930911C09421753070CF480E0809303
:102DA0001E098091210981FD5ECC81E020912209DC
:102DB00030912309121613060CF480E08093200949
:102DC00052CC80911909882369F08091240981FDF2
:102DD000D5CF80911B0990911C0990932309809372
:102DE0002209CCCF80912B09909135099923A1F02C
:102DF0008111C4CF809122099091230920911B0950
:102E000030911C09821793070CF0B8CF2091240948
:102E1000019621FFE2CFB2CF882309F4AFCF809192
:102E2000220990912309181619060CF0A7CF2091BA
:102E3000240921FDA3CF0197D0CF40914A09509199
:102E40004B0960914C0970914D099D59A946BA43AF
:102E500080934E0990934F09A0935009B093510964
:102E60004F5F5F4F6F4F7F4F40934A0950934B091D
:102E700060934C0970934D0922CC81112BCD0CCD60
:102E8000882309F459CE3FCEEFEFF7E01382128288
:102E900088EE93E0A0E0B0E084839583A683B783B7
:102EA00086ED94E09183808385EC90E0958784871C
:102EB00084EC90E09787868780EC90E0918B808B04
:102EC00081EC90E0938B828B82EC90E0958B848BED
:102ED00086EC90E0978B868B118E128E138E148E5B
:102EE0000895EE0FFF1F881F8BBF0790F691E02D0E
:102EF0001994002E083090F0982F872F762F652F89
:102F0000542F432F322F22270850F4CF220F331F84
:102F1000441F551F661F771F881F991F0A95B2F718
:102F2000002D089597FD1094002E083098F0085059
:102F3000232F342F452F562F672F782F892F912D30
:102F4000F4CF1594979587957795679557954795FD
:102F5000379527950A95AAF71124002D08950F9308
:102F60001F93CF93DF938230910510F482E090E0BD
:102F7000E0916A09F0916B0930E020E0B0E0A0E058
:102F8000309799F42115310509F44AC0281B390BF3
:102F900024303105D8F58A819B816115710589F14D
:102FA000FB0193838283FE0111C040815181028124
:102FB000138148175907E0F04817590799F41097FB
:102FC00061F012960C93129713961C933296CF01D0
:102FD000DF91CF911F910F91089500936A0910938B
:102FE0006B09F4CF2115310551F04217530738F022
:102FF000A901DB019A01BD01DF01F801C1CFEF0199
:10300000F9CF90936B0980936A09CDCFFE01E20F4F
:10301000F31F819391932250310939832883D7CFAD
:103020002091680930916909232B41F42091020213
:1030300030910302309369092093680920910002BE
:10304000309101022115310541F42DB73EB7409171
:10305000040250910502241B350BE0916809F091A0
:103060006909E217F307A0F42E1B3F0B2817390755
:1030700078F0AC014E5F5F4F2417350748F04E0FD4
:103080005F1F5093690940936809819391939FCF83
:10309000F0E0E0E09CCFCF93DF930097E9F0FC01F4
:1030A000329713821282A0916A09B0916B09ED01E7
:1030B00030E020E01097A1F420813181820F931F2E
:1030C00020916809309169092817390709F061C012
:1030D000F0936909E0936809DF91CF910895EA01BF
:1030E000CE17DF07E8F54A815B819E014115510546
:1030F000B1F7E901FB83EA8349915991C40FD51FC8
:10310000EC17FD0761F4808191810296840F951F71
:10311000E90199838883828193819B838A83F0E08C
:10312000E0E012968D919C9113970097B9F52D913F
:103130003C911197CD010296820F931F209168094F
:10314000309169092817390739F6309751F51092EF
:103150006B0910926A09B0936909A0936809BCCF02
:10316000D383C28340815181840F951FC817D9072B
:1031700061F44E5F5F4F88819981480F591F5183D9
:1031800040838A819B81938382832115310509F0D5
:10319000B0CFF0936B09E0936A099ECFFD01DC018B
:1031A000C0CF13821282D7CFFB01DC0102C0019095
:1031B0000D9241505040D8F70895F894FFCF000089
:1031C0006C09800000C0C101C30302C2C60607C764
:1031D00005C5C404CC0C0DCD0FCFCE0E0ACACB0B47
:1031E000C90908C8D81819D91BDBDA1A1EDEDF1F77
:1031F000DD1D1CDC14D4D515D71716D6D21213D367
:1032000011D1D010F03031F133F3F23236F6F73716
:10321000F53534F43CFCFD3DFF3F3EFEFA3A3BFB06
:1032200039F9F83828E8E929EB2B2AEAEE2E2FEFB6
:103230002DEDEC2CE42425E527E7E62622E2E32326
:10324000E12120E0A06061A163A3A26266A6A76756
:10325000A56564A46CACAD6DAF6F6EAEAA6A6BABC6
:1032600069A9A86878B8B979BB7B7ABABE7E7FBFF6
:103270007DBDBC7CB47475B577B7B67672B2B373E6
:10328000B17170B050909151935352929656579796
:10329000559594549C5C5D9D5F9F9E5E5A9A9B5B86
:1032A00099595898884849894B8B8A4A4E8E8F4F36
:1032B0008D4D4C8C448485458747468682424383A6
:1032C0004181804000C1814001C0804101C08041F6
:1032D00000C1814001C0804100C1814000C18140E6
:1032E00001C0804101C0804100C1814000C18140D6
:1032F00001C0804100C1814001C0804101C08041C6
:1033000000C1814001C0804100C1814000C18140B5
:1033100001C0804100C1814001C0804101C08041A5
:1033200000C1814000C1814001C0804101C0804195
:1033300000C1814001C0804100C1814000C1814085
:1033400001C0804101C0804100C1814000C1814075
:1033500001C0804100C1814001C0804101C0804165
:1033600000C1814000C1814001C0804101C0804155
:1033700000C1814001C0804100C1814000C1814045
:1033800001C0804100C1814001C0804101C0804135
:1033900000C1814001C0804100C1814000C1814025
:1033A00001C0804101C0804100C1814000C1814015
:1033B00001C0804100C1814001C0804101C0804105
:1033C00000C181409C080F009E080F00A0080A0061
:1033D000A9080F00AB080F00AD080F00AF080F00E1
:1033E000B1080F00B3080A00BC080F00BE080A00AD
:1033F000C7080200C9080F00CB080A00D4080A0059
:10340000DD080F00DF080F00E1080F00E3080A00E5
:10341000EC080F00EE080A00F7080200F9080F0098
:10342000FB080A0004090A000D090F000F090F002C
:1034300011090F0013090F0015090F0017090F00DC
:1034400019090F001B0903001E090F0020090F00B6
:103450002209030025090F0027090F0029090F0081
:103460002B090F002D090F002F090F0031090F0044
:1034700033090F0035090F0037090F0039093700EC
:103480003D09370041092B0046090F0048090F008C
:1034900000000000C90233026002160391026F02AD
:1034A00083023236386561393965373961316338BD
:1034B0003764363531343531316461383239396108
:0434C00037310000A0
:020000040003F7
:10E000000D9489F10D94B2F10D94B2F10D94B2F129
:10E010000D94B2F10D94B2F10D94B2F10D94B2F1F0
:10E020000D94B2F10D94B2F10D94B2F10D94B2F1E0
:10E030000D94B2F10D94B2F10D94B2F10D94B2F1D0
:10E040000D94B2F10D94B2F10D94B2F10D94B2F1C0
:10E050000D94B2F10D94B2F10D94B2F10D94B2F1B0
:10E060000D94B2F10D94B2F10D94B2F10D94B2F1A0
:10E070000D94B2F10D94B2F10D94B2F10D94B2F190
:10E080000D94B2F10D94B2F10D94B2F10D94B2F180
:10E090000D94B2F10D94B2F10D94B2F10D94B2F170
:10E0A0000D94B2F10D94B2F10D94B2F10D94B2F160
:10E0B0000D94B2F10D94B2F10D94B2F10D94B2F150
:10E0C0000D94B2F10D94B2F10D94B2F10D94B2F140
:10E0D0000D94B2F10D94B2F10D94B2F10D94B2F130
:10E0E0000D94B2F141546D656761323536300041AF
:10E0F000726475696E6F206578706C6F72657220DE
:10E1000073746B3530305632206279204D4C530099
:10E11000426F6F746C6F616465723E004875683F52
:10E1200000436F6D70696C6564206F6E203D200048
:10E130004350552054797065202020203D20005FF9
:10E140005F4156525F415243485F5F3D2000415658
:10E1500052204C696243205665723D20004743437C
:10E160002056657273696F6E203D20004350552024
:10E1700049442020202020203D20004C6F7720663D
:10E18000757365202020203D20004869676820665F
:10E190007573652020203D200045787420667573D6
:10E1A00065202020203D20004C6F636B2066757336
:10E1B000652020203D20004D617220203720323024
:10E1C000313300312E362E3800342E332E350056A2
:10E1D00023202020414444522020206F7020636F70
:10E1E00064652020202020696E73747275637469E1
:10E1F0006F6E2061646472202020496E74657272B3
:10E20000757074006E6F20766563746F7200726A49
:10E210006D702020006A6D70200057686174207056
:10E220006F72743A00506F7274206E6F7420737541
:10E2300070706F72746564004D7573742062652030
:10E2400061206C6574746572002000577269747483
:10E25000696E672045450052656164696E672045B7
:10E26000450045452065727220636E743D00504F35
:10E27000525400303D5A65726F2061646472003FF1
:10E280003D43505520737461747300403D454550C3
:10E29000524F4D207465737400423D426C696E6B41
:10E2A000204C454400453D44756D70204545505215
:10E2B0004F4D00463D44756D7020464C415348001B
:10E2C000483D48656C70004C3D4C69737420492F83
:10E2D0004F20506F72747300513D51756974005234
:10E2E0003D44756D702052414D00563D73686F7707
:10E2F00020696E7465727275707420566563746FF0
:10E30000727300593D506F727420626C696E6B00BD
:10E310002A0011241FBECFEFD1E2DEBFCDBF01E046
:10E320000CBF12E0A0E0B2E0EEE1FDEF03E00BBFB6
:10E3300002C007900D92A030B107D9F712E0A0E01B
:10E34000B2E001C01D92AE30B107E1F70F9460F367
:10E350000D948DFE01E20EBF0FEF0DBF11241FBE05
:10E360000D9460F30D9400F020E030E040ED57E0B4
:10E3700005C0FA013197F1F72F5F3F4F2817390792
:10E38000C0F308959C01260F311DC901A0E0B0E043
:10E390002F5F3F4FABBFFC018791882361F08093D3
:10E3A000C6008091C00086FFFCCF8091C0008064D1
:10E3B0008093C000EACF08958DE08093C6008091DD
:10E3C000C00086FFFCCF8091C00080648093C000B5
:10E3D0008AE08093C6008091C00086FFFCCF8091C8
:10E3E000C00080648093C00008950F94C2F10F9420
:10E3F000DCF10895FC019081992359F09093C600B7
:10E400008091C00086FFFCCF8091C0008064809323
:10E41000C0003196992379F70895282F982F929567
:10E420009F70892F805D8A3308F0895F8093C600D2
:10E430008091C00086FFFCCF8091C00080648093F3
:10E44000C000822F8F70982F905D9A3308F0995FEB
:10E450009093C6008091C00086FFFCCF8091C000E1
:10E4600080648093C00008959C01FB01853691056E
:10E470001CF46330710594F0C90164E670E00F94F8
:10E480002EFE605D7F4F6093C6008091C00086FFC6
:10E49000FCCF8091C00080648093C0002B30310598
:10E4A00014F43297B4F0C90164E670E00F942EFEC4
:10E4B0006AE070E00F942EFE605D7F4F6093C600AF
:10E4C0008091C00086FFFCCF8091C0008064809363
:10E4D000C000C9016AE070E00F942EFEC0968093E0
:10E4E000C6008091C00086FFFCCF8091C000806490
:10E4F0008093C00008951F93182F8EE692EE60E07F
:10E500000F94C2F11093C6008091C00086FFFCCF2B
:10E510008091C00080648093C0000F94DCF11F9153
:10E5200008952F923F924F925F926F927F928F92B7
:10E530009F92AF92BF92CF92DF92EF92FF920F9392
:10E540001F93DF93CF93CDB7DEB762970FB6F894E2
:10E55000DEBF0FBECDBF382E622ECA01DB015C01CB
:10E560006D01772420E2222E2E010894411C511CBB
:10E570008BC081E0A81680E0B80681E0C80680E084
:10E58000D80628F0C601AA27BB270F940DF2BB2797
:10E59000AD2D9C2D8B2D0F940DF28A2D0F940DF225
:10E5A0002092C6008091C00086FFFCCF8091C00001
:10E5B00080648093C0009DE29093C6008091C0006B
:10E5C00086FFFCCF8091C00080648093C0002092C1
:10E5D000C6008091C00086FFFCCF8091C00080649F
:10E5E0008093C00019828601750188249924A1E0D6
:10E5F0003A1651F03A1620F0B2E03B1661F409C029
:10E600000BBFF701779007C0C7010F9477FE782EF4
:10E6100002C0F7017080872D0F940DF22092C60082
:10E620008091C00086FFFCCF8091C0008064809301
:10E63000C000872D8052F401EF70F0708F3520F408
:10E64000E40DF51D708204C0E40DF51D8EE280839B
:10E650000894E11CF11C011D111D0894811C911CE2
:10E6600090E18916910409F0C2CF80E190E0A0E02A
:10E67000B0E0A80EB91ECA1EDB1E198AC2010F9493
:10E68000FAF10F94DCF16A94662009F072CF629679
:10E690000FB6F894DEBF0FBECDBFCF91DF911F91B3
:10E6A0000F91FF90EF90DF90CF90BF90AF909F9031
:10E6B0008F907F906F905F904F903F902F90089534
:10E6C0002F923F924F925F926F927F928F929F9282
:10E6D000AF92BF92CF92DF92EF92FF920F931F9370
:10E6E000DF93CF93CDB7DEB7CD53D1400FB6F894BB
:10E6F000DEBF0FBECDBF01E20EBF0FEF0DBF94B75F
:10E70000F894A89514BE80916000886180936000A1
:10E7100010926000789493FF05C0E0910002F091A0
:10E7200001021995279A2F9A8091C00082608093E8
:10E73000C00080E18093C40088E18093C1000000A4
:10E74000EE24FF24870144E0A42EB12CCC24DD2448
:10E7500024C0C5010197F1F70894E11CF11C011DCB
:10E76000111D21E2E2162EE4F20620E0020720E06D
:10E77000120718F031E0C32ED12CC801B70127ECE5
:10E780003BE140E050E00F9441FE611571058105C9
:10E79000910519F485B1805885B98091C00087FD35
:10E7A00003C0C114D104A9F2A6014F5F5F4FC25E3E
:10E7B000DE4F59834883CE51D140C25EDE4F8881FF
:10E7C0009981CE51D140019711F00D9410FEC05D9A
:10E7D000DE4F19821882C053D14060E0C15DDE4F28
:10E7E0001882CF52D14088249924C35DDE4F19820C
:10E7F0001882CD52D140C05EDE4F188219821A8233
:10E800001B82C052D140CE5CDE4F188219821A8220
:10E810001B82C253D140EE24FF2487010BBFF701B6
:10E8200007911691C45CDE4F19830883CC53D14005
:10E830000D940BFEC25EDE4F28813981CE51D1404E
:10E840002130310509F52091C600C25EDE4F1982E4
:10E850001882CE51D14022C02F5F3F4F4F4F5F4FA4
:10E86000213082E138078AE7480780E0580780F0C6
:10E87000C45CDE4FE881F981CC53D140EF5FFF4F9C
:10E8800019F0EE27FF27099420E030E040E050E047
:10E890008091C00087FFE0CF2091C600C35DDE4FAE
:10E8A00048815981CD52D1404F5F5F4FC35DDE4FEC
:10E8B00059834883CD52D140213209F063C64A3092
:10E8C000510508F05FC60894811C911C53E0851621
:10E8D000910409F059C600E010E018C081E280936D
:10E8E000C6008091C00086FFFCCF8091C00080648C
:10E8F0008093C0002F5F3F4F2931310579F70F9486
:10E90000DCF10F5F1F4F0530110519F020E030E0FA
:10E91000E5CF10920A0210920B0210920C02109294
:10E920000D02109206021092070210920802109235
:10E930000902109202021092030210920402109235
:10E9400005028FEE90EE60E00F94F5F180E191EE1C
:10E9500060E00F94C2F18091C00087FFFCCF9091DE
:10E96000C600903608F09F759032B8F09093C600BC
:10E970008091C00086FFFCCF8091C00080648093AE
:10E98000C000A0E2A093C6008091C00086FFFCCF2B
:10E990008091C00080648093C000983409F4D7C18E
:10E9A0009934B8F4923409F459C1933458F490333B
:10E9B00019F1903308F4E3C59F33A1F1903409F0C5
:10E9C000DEC5BDC0953409F470C1963409F0D7C5D1
:10E9D00098C1923509F42BC2933538F49C3409F46C
:10E9E000F5C1913509F0CBC518C2963509F445C279
:10E9F000993509F0C4C567C483E792EE62E00F94CD
:10EA0000F5F110920602109207021092080210927D
:10EA1000090210920A0210920B0210920C0210923C
:10EA20000D0213C18FE792EE62E00F94F5F18FEEC5
:10EA300090EE60E00F94F5F181E291EE60E00F94CA
:10EA4000C2F187EB91EE60E00F94F5F180E391EE77
:10EA500060E00F94C2F184EE90EE60E00F94F5F167
:10EA60008FE391EE60E00F94C2F186E090E061E008
:10EA700070E00F9434F20F94DCF18DE591EE60E0DC
:10EA80000F94C2F189EC91EE60E00F94F5F18EE401
:10EA900091EE60E00F94C2F183EC91EE60E00F9490
:10EAA000F5F18CE691EE60E00F94C2F18EE10F94E7
:10EAB0000DF288E90F940DF281E00F940DF20F949E
:10EAC000DCF18BE791EE60E00F94C2F119E0E0E039
:10EAD000F0E010935700E4918E2F0F940DF20F94F5
:10EAE000DCF18AE891EE60E00F94C2F1E3E0F0E03F
:10EAF00010935700E4918E2F0F940DF20F94DCF1D8
:10EB000089E991EE60E00F94C2F1E2E0F0E0109349
:10EB10005700E4918E2F0F940DF20F94DCF188EAE8
:10EB200091EE60E00F94C2F1E1E0F0E01093570045
:10EB30001491812F0F940DF20F94DCF107CF8BE825
:10EB400092EE62E00F94F5F18BE492EE60E00F94A8
:10EB5000F5F10F94DCF100E010E019C0C8016F2D51
:10EB60000F947FFEFF2031F489E492EE60E00F9471
:10EB7000C2F10BC0F092C6008091C00086FFFCCFAE
:10EB80008091C00080648093C0000F5F1F4FC80158
:10EB900081519F41A0E0B0E0ABBFFC01F790BAE229
:10EBA000FB1621F0E2E000301E07C1F60F94DCF105
:10EBB0000F94DCF187E592EE60E00F94F5F10F948D
:10EBC000DCF1CC24DD2400E010E01EC0C8010F946D
:10EBD00077FEF82E882331F489E492EE60E00F94FA
:10EBE000C2F10BC08093C6008091C00086FFFCCFAD
:10EBF0008091C00080648093C000FE1419F00894D6
:10EC0000C11CD11C0F5F1F4FC80181519F41A0E063
:10EC1000B0E0ABBFFC01E790FAE2EF1621F022E092
:10EC20000030120799F60F94DCF10F94DCF182E6C4
:10EC300092EE60E00F94C2F1C60161E070E00F94C3
:10EC400034F20F94DCF10F94DCF110920202109276
:10EC50000302109204021092050278CE89E992EE26
:10EC600062E00F94F5F1279A2F9A16C02F9880E052
:10EC700090E0E0EDF7E03197F1F7019684369105E9
:10EC8000C1F72F9A80E090E0E0EDF7E03197F1F7DF
:10EC9000019684369105C1F78091C00087FFE6CFC9
:10ECA0008091C00087FFFCCF64C485EA92EE62E0E9
:10ECB0000F94F5F140910202509103026091040219
:10ECC0007091050281E020E10F9491F2809102029F
:10ECD00090910302A0910402B091050280509F4FD1
:10ECE000AF4FBF4F8093020290930302A0930402A0
:10ECF000B093050280509041A040B04008F426CE69
:10ED0000A4CF83EB92EE62E00F94F5F140910602FE
:10ED100050910702609108027091090280E020E1A1
:10ED20000F9491F28091060290910702A09108023F
:10ED3000B091090280509F4FAF4FBF4F80930602A2
:10ED400090930702A0930802B0930902FFCD80ECD4
:10ED500092EE62E00F94F5F183E792EE60E00F949B
:10ED6000F5F18FE792EE60E00F94F5F18BE892EE0B
:10ED700060E00F94F5F189E992EE60E00F94F5F10F
:10ED800085EA92EE60E00F94F5F183EB92EE60E09D
:10ED90000F94F5F180EC92EE60E00F94F5F187ECC2
:10EDA00092EE60E00F94F5F188ED92EE60E00F9442
:10EDB000F5F18FED92EE60E00F94F5F18AEE92EEB0
:10EDC00060E00F94F5F183E093EEBDCD87EC92EE19
:10EDD00062E00F94F5F181E40F947BF282E40F94EA
:10EDE0007BF283E40F947BF284E40F947BF285E45E
:10EDF0000F947BF286E40F947BF287E40F947BF20E
:10EE000088E40F947BF28AE40F947BF28BE40F94F6
:10EE10007BF28CE40F947BF299CD88ED92EE62E068
:10EE20000F94F5F1772473948824992409C48FED05
:10EE300092EE62E00F94F5F140910A0250910B02BC
:10EE400060910C0270910D0282E020E10F9491F22A
:10EE500080910A0290910B02A0910C02B0910D02D8
:10EE600080509F4FAF4FBF4F80930A0290930B0289
:10EE7000A0930C02B0930D0269CD8AEE92EE62E08F
:10EE80000F94F5F184EE90EE60E00F94F5F18FECC5
:10EE900091EE60E00F94F5F1662477244301CC5D98
:10EEA000DE4F19821882C452D140D401C301B695F5
:10EEB000A79597958795CA5DDE4F88839983AA8326
:10EEC000BB83C652D140CC5DDE4FA881B981C4520C
:10EED000D1401196CC5DDE4FB983A883C452D14096
:10EEE000CD0162E070E00F9434F2B0E2B093C6005E
:10EEF0008091C00086FFFCCF8091C0008064809329
:10EF0000C000EDE2E093C6008091C00086FFFCCF18
:10EF10008091C00080648093C000F0E2F093C6004E
:10EF20008091C00086FFFCCF8091C00080648093F8
:10EF3000C000CA5DDE4FE880F9800A811B81C6529D
:10EF4000D140BB27A12F902F8F2D0F940DF2CA5DBA
:10EF5000DE4F8881C652D1400F940DF2B0E2FB2EF5
:10EF6000F092C6008091C00086FFFCCF8091C00067
:10EF700080648093C0000DE30093C6008091C000C0
:10EF800086FFFCCF8091C00080648093C00010E2B7
:10EF90001093C6008091C00086FFFCCF8091C00016
:10EFA00080648093C0008BBEF3012791C65DDE4F65
:10EFB0002883CA52D140A22EBB24CC24DD2408943D
:10EFC000611C711C811C911C8BBEF3018791282E42
:10EFD0003324442455240894611C711C811C911C09
:10EFE0008BBEF3013791C55DDE4F3883CB52D140E4
:10EFF0000894611C711C811C911C8BBEF30147910C
:10F00000C45DDE4F4883CC52D140ADEFEA2EAFEF66
:10F01000FA2EAFEF0A2FAFEF1A2F6E0C7F1C801E57
:10F02000911E142D032DF22CEE24EA0CFB1C0C1D5A
:10F030001D1D0F940DF220E22093C6008091C000A8
:10F0400086FFFCCF8091C00080648093C000C65DC5
:10F05000DE4F8881CA52D1400F940DF230E23093D6
:10F06000C6008091C00086FFFCCF8091C000806404
:10F070008093C000C45DDE4F8881CC52D1400F9494
:10F080000DF240E24093C6008091C00086FFFCCFA5
:10F090008091C00080648093C000C55DDE4F888190
:10F0A000CB52D1400F940DF250E25093C6008091A4
:10F0B000C00086FFFCCF8091C00080648093C000B8
:10F0C0008FEFE8168FEFF80680E0080780E018075A
:10F0D00031F484E092EE60E00F94C2F1DFC0D80119
:10F0E000C7018070907CA070B0708050904CA040A0
:10F0F000B040D1F52FEF3FE340E050E0E222F322B1
:10F1000004231523CA5DDE4FA880B980CA80DB8046
:10F11000C652D140AE0CBF1CC01ED11EAA0CBB1CD7
:10F12000CC1CDD1C8EE092EE60E00F94C2F1BB2798
:10F13000A12F902F8F2D0F940DF28E2D0F940DF285
:10F1400030E23093C6008091C00086FFFCCF8091F2
:10F15000C00080648093C0004EE34093C60080915D
:10F16000C00086FFFCCF87C08EE09EEFA0E0B0E03D
:10F17000E822F9220A231B239CE0E91694E9F90608
:10F1800090E0090790E0190709F088C0C45DDE4FE0
:10F19000A881CC52D140EA2EFF2400E010E0102FCD
:10F1A0000F2DFE2CEE24C55DDE4FB881CB52D14031
:10F1B000EB0EF11C011D111DD601C501817090706F
:10F1C000A070B070DC0199278827E80EF91E0A1F8D
:10F1D0001B1F20EF30E040E050E0A222B322C42207
:10F1E000D52241E1AA0CBB1CCC1CDD1C4A95D1F7F1
:10F1F000EA0CFB1C0C1D1D1D81E090E0A0E0B0E0BE
:10F20000282239224A225B2235E1220C331C441C7D
:10F21000551C3A95D1F7E20CF31C041D151D57013E
:10F220006801AA0CBB1CCC1CDD1C85E192EE60E0E1
:10F230000F94C2F1C801AA27BB270F940DF2BB2778
:10F24000A12F902F8F2D0F940DF28E2D0F940DF274
:10F2500090E29093C6008091C00086FFFCCF809121
:10F26000C00080648093C000AEE3A093C60080918C
:10F27000C00086FFFCCF8091C00080648093C000F6
:10F28000C601AA27BB270F940DF2BB27AD2D9C2DDD
:10F290008B2D0F940DF28A2D0F940DF20F94DCF14B
:10F2A000CC5DDE4FE881F981C452D140F99709F471
:10F2B0004DCBF4E0EF2EF12C012D112D6E0C7F1CA7
:10F2C000801E911EF2CD83E093EE62E00F94F5F183
:10F2D0008AE192EE60E00F94C2F18091C00087FF56
:10F2E000FCCF1091C6001F751093C6008091C0001E
:10F2F00086FFFCCF8091C00080648093C0000F9493
:10F30000DCF1812F81548A3108F036C1163409F4BA
:10F3100095C0173490F4133409F44EC0143430F40B
:10F320001134F1F0123409F01DC130C0143409F465
:10F3300059C0153409F016C16BC01A3409F4C4C0A1
:10F340001B3438F4173409F48FC0183409F00AC19B
:10F35000A1C01B3409F4D2C01C3409F003C1E8C0B9
:10F360008FEF81B90DC082B1809582B980E090E0C5
:10F37000E0EDF7E03197F1F70196883C9105C1F790
:10F380008091C00087FFEFCF12B8EFC08FEF84B934
:10F390000DC085B1809585B980E090E0E0EDF7E0A3
:10F3A0003197F1F70196883C9105C1F78091C00033
:10F3B00087FFEFCF15B8D9C08FEF87B90DC088B1DF
:10F3C000809588B980E090E0E0EDF7E03197F1F7C3
:10F3D0000196883C9105C1F78091C00087FFEFCF6F
:10F3E00018B8C3C08FEF8AB90DC08BB180958BB9A7
:10F3F00080E090E0E0EDF7E03197F1F70196883C8E
:10F400009105C1F78091C00087FFEFCF1BB8ADC059
:10F410008FEF8DB90DC08EB180958EB980E090E0F0
:10F42000E0EDF7E03197F1F70196883C9105C1F7DF
:10F430008091C00087FFEFCF1EB897C08FEF80BBD1
:10F440000DC081B3809581BB80E090E0E0EDF7E0F6
:10F450003197F1F70196883C9105C1F78091C00082
:10F4600087FFEFCF11BA81C08FEF83BB0DC084B38C
:10F47000809584BB80E090E0E0EDF7E03197F1F714
:10F480000196883C9105C1F78091C00087FFEFCFBE
:10F4900014BA6BC08FEF809301010FC080910201FD
:10F4A00080958093020180E090E0E0EDF7E03197F5
:10F4B000F1F70196883C9105C1F78091C00087FF64
:10F4C000EDCF1092020151C08FEF809304010FC065
:10F4D0008091050180958093050180E090E0E0ED4A
:10F4E000F7E03197F1F70196883C9105C1F78091DB
:10F4F000C00087FFEDCF1092050137C08FEF8093DA
:10F5000007010FC08091080180958093080180E079
:10F5100090E0E0EDF7E03197F1F70196883C910536
:10F52000C1F78091C00087FFEDCF109208011DC088
:10F530008FEF80930A010FC080910B01809580931B
:10F540000B0180E090E0E0EDF7E03197F1F70196F4
:10F55000883C9105C1F78091C00087FFEDCF1092E4
:10F560000B0103C085E292EEEEC98091C00087FFD7
:10F57000FCCF8091C600EAC988E392EEE4C98CE131
:10F5800091EEE1C988249924933011F1943028F444
:10F59000913089F09230B8F408C0953061F195301F
:10F5A000F0F0963009F048C043C02B3109F042C951
:10F5B00091E06BE13FC96227C15DDE4F2883CF52E6
:10F5C000D14092E037C9B22FA0E0622793E032C960
:10F5D000822F90E0A82BB92B622794E02BC92E3004
:10F5E00009F039C3622795E0C05DDE4F19821882A9
:10F5F000C053D1401FC9E1E0F0E0EC0FFD1FC05D3A
:10F60000DE4F08811981C053D140E00FF11F2083E4
:10F610000F5F1F4FC05DDE4F19830883C053D14079
:10F6200062270A171B0709F005C9D80196E002C92D
:10F63000261709F010C303C0973009F0FBC87724E0
:10F640009981933109F412C19431C8F4963009F4C8
:10F65000D8C0973050F4923009F406C1933009F4C1
:10F660006DC0913009F059C253C0913109F477C08F
:10F67000923108F0BBC0903109F04FC2F5C098310B
:10F6800009F487C0993150F4953109F4EFC09531F0
:10F6900008F4C6C1963109F040C2C2C19A3109F4DA
:10F6A0006CC09A3108F491C09B3109F45BC09D3164
:10F6B00009F033C29D81903359F48F81882311F46E
:10F6C0009EE11CC0813011F091E018C098E916C08D
:10F6D000892F807591F0903539F4E0E0F0E089E011
:10F6E0008093570094910AC0983539F4E3E0F0E034
:10F6F00089E080935700949101C090E01A821B82A8
:10F700008D818C831D829E831F8227E030E009C299
:10F710001A8288E08B8381E48C8386E58D8382E581
:10F720008E8389E48F8383E5888780E589878FE5E9
:10F730008A8782E38B872BE030E0F3C18A818139AD
:10F7400041F0823941F0803911F48FE005C080E04A
:10F7500003C082E001C08AE01A828B8344C0772410
:10F76000739482C08D81882311F48EE12CC0813086
:10F7700011F081E028C088E926C01A82E1E0F0E0BB
:10F7800089E08093570084918B831C8224E030E0D1
:10F79000C8C18B81803589F48C81883039F4E2E0EE
:10F7A000F0E089E08093570084910DC0E0E0F0E044
:10F7B00089E080935700849106C0E3E0F0E089E09F
:10F7C0008093570084911A82DFCF8D81836C99E0FA
:10F7D000E1E0F0E0082E90935700E89507B600FCB2
:10F7E000FDCF1A821B8223E030E09BC180EC8A832C
:10F7F000CE5CDE4F188219821A821B82C253D1401E
:10F800008EC18A8190E0A0E0B0E0582F44273327D2
:10F8100022278B8190E0A0E0B0E0DC0199278827C7
:10F82000282B392B4A2B5B2B8D8190E0A0E0B0E098
:10F83000282B392B4A2B5B2B8C8190E0A0E0B0E089
:10F84000BA2FA92F982F8827282B392B4A2B5B2BCF
:10F85000220F331F441F551FC05EDE4F288339839C
:10F860004A835B83C052D1401A8259C13A81C95C34
:10F87000DE4F3883C753D140CA5CDE4F1882C6536F
:10F88000D1408B81C82EDD24CA5CDE4F488159816E
:10F89000C653D140C42AD52A933109F082C0CE5C28
:10F8A000DE4F88819981AA81BB81C253D1408050AB
:10F8B000904CA340B04030F583E0CE5CDE4FE88052
:10F8C000F9800A811B81C253D140F70100935B008C
:10F8D00080935700E89507B600FCFDCFCE5CDE4F65
:10F8E000088119812A813B81C253D14000501F4FAA
:10F8F0002F4F3F4FCE5CDE4F088319832A833B8313
:10F90000C253D140C05EDE4F488159816A817B81FC
:10F91000C052D140DE011B9631E08C9111962C91A2
:10F9200011971296C75CDE4F2883C953D140C85C3B
:10F93000DE4F1882C853D14090E0C85CDE4FE881AA
:10F94000F981C853D1408E2B9F2B0C01FA01609393
:10F950005B0030935700E89511244E5F5F4F6F4F67
:10F960007F4F0EEFE02E0FEFF02ECE0CDF1CC114F8
:10F97000D10499F685E0C05EDE4F088119812A81A5
:10F980003B81C052D140F80120935B008093570027
:10F99000E89507B600FCFDCF81E180935700E8951C
:10F9A00035C0C05EDE4F88819981AA81BB81C0527B
:10F9B000D140B695A795979587957C018601ABE0D8
:10F9C000AA2EB12CAC0EBD1E0BC0D5016D915D01F0
:10F9D000C7010F947FFE0894E11CF11C01501040F8
:10F9E0000115110591F7A60160E070E0440F551F65
:10F9F000661F771FC05EDE4FE880F9800A811B8199
:10FA0000C052D1404E0D5F1D601F711F1A82C05E33
:10FA1000DE4F488359836A837B83C052D1407FC0C5
:10FA2000FA80C55CDE4FF882CB53D140C65CDE4F16
:10FA30001882CA53D1408B81C82EDD24C65CDE4FAC
:10FA400008811981CA53D140C02AD12A1A828981DA
:10FA5000BE016D5F7F4F843121F59601C05EDE4FA0
:10FA6000E880F9800A811B81C052D1400BBFF701A9
:10FA700087919691DB018C9311969C936E5F7F4FDB
:10FA8000D801C7010296A11DB11DC05EDE4F88835B
:10FA90009983AA83BB83C052D14022503040F1F6F3
:10FAA00036C0C05EDE4F288139814A815B81C052F9
:10FAB000D1400894C108D108760100E010E0089414
:10FAC000C11CD11C0894E11CF11C011D111DE20E8A
:10FAD000F31E041F151F21BDBB27A52F942F832FB5
:10FAE00082BD2F5F3F4F4F4F5F4FF89A80B5DB01CC
:10FAF0008D93BD012E153F054007510761F7C05E8C
:10FB0000DE4F288339834A835B83C052D1409601FC
:10FB10002D5F3F4FFB01108204C080EC8A8322E0FE
:10FB200030E08BE18093C6008091C00086FFFCCF5F
:10FB30008091C00080648093C000C15DDE4FF88179
:10FB4000CF52D140F093C6008091C00086FFFCCF19
:10FB50008091C00080648093C000432F3093C60022
:10FB60008091C00086FFFCCF8091C00080648093AC
:10FB7000C000922F2093C6008091C00086FFFCCF6A
:10FB80008091C00080648093C0008EE08093C600A6
:10FB90008091C00086FFFCCF8091C000806480937C
:10FBA000C00065E1C15DDE4FE880CF52D1406E25D7
:10FBB00069276427FE01319610C090819093C6009A
:10FBC0008091C00086FFFCCF31968091C000806498
:10FBD0008093C0006927215030402115310569F715
:10FBE0006093C6008091C00086FFFCCF8091C0006A
:10FBF00080648093C00085B1805885B9772081F4F6
:10FC0000C15DDE4F0881CF52D1400F5FC15DDE4F35
:10FC10000883CF52D14090E0A0E0B0E00D941AF4F8
:10FC200027982F9880E090E020ED37E0F901319798
:10FC3000F1F7019684369105C9F700008091C00064
:10FC40008D7F8093C00081E180935700E895EE2777
:10FC5000FF270994FFCF90E00D941AF497FB092E2B
:10FC600007260AD077FD04D02ED006D000201AF443
:10FC7000709561957F4F0895F6F7909581959F4F08
:10FC80000895A1E21A2EAA1BBB1BFD010DC0AA1FDD
:10FC9000BB1FEE1FFF1FA217B307E407F50720F0F5
:10FCA000A21BB30BE40BF50B661F771F881F991F70
:10FCB0001A9469F760957095809590959B01AC01B9
:10FCC000BD01CF010895AA1BBB1B51E107C0AA1FAC
:10FCD000BB1FA617B70710F0A61BB70B881F991FED
:10FCE0005A95A9F780959095BC01CD010895F99991
:10FCF000FECF92BD81BDF89A992780B50895262F31
:10FD0000F999FECF1FBA92BD81BD20BD0FB6F89400
:0EFD1000FA9AF99A0FBE01960895F894FFCF63
:00000001FF
