:100000000C941B010C944C010C944C010C944C016D
:100010000C944C010C944C010C944C010C944C012C
:100020000C944C010C944C010C944C010C944C011C
:100030000C944C010C944C010C944C010C944C010C
:100040000C944C010C944C010C944C010C944C01FC
:100050000C944C010C944C010C944C010C94520FD8
:100060000C944C010C94C60F0C949C0F0C944C01F6
:100070000C944C010C944C010C944C010C944C01CC
:100080000C944C010C944C010C944C010C944C01BC
:100090000C944C010C944C010C944C010C944C01AC
:1000A0000C944C010C944C010C944C010C944C019C
:1000B0000C944C010C944C010C944C010C944C018C
:1000C0000C944C010C944C010C944C010C944C017C
:1000D0000C944C010C944C010C944C010C944C016C
:1000E0000C944C010C9460020C9433020C94FD01AE
:1000F0000C94D3010C94F9010C94EF010C94EB01D6
:100100000C9416030C94E1010C94F3010C94CD01B2
:100110000C94C9020C94A7010C94E5010C946F0295
:100120000C94DD010C94AC010C94C6010C94CA0132
:100130000C94D7010C94BE010C9483020C94C20160
:100140000C9444170C949102000022002500280012
:100150002B002E00310034000201000005010801CF
:100160000B0105050505070508080808020202023B
:100170000A0A080804040404010101010101010143
:100180000303030303030303040707070C0C0C0C0E
:100190000C0C0C0C020202020606060606060606F7
:1001A0000B0B0B0B0B0B0B0B010210202008081084
:1001B00020401020408002010201080402010102D7
:1001C00004081020408080402010080402018004B0
:1001D000020180402010080402010804020101020B
:1001E0000408102040800102040810204080000014
:1001F0000A0B02090C0D0E080703040100000000A1
:1002000000000000000000000000000000000000EE
:1002100000000000000000000000121110000000AB
:1002200000000000000000000000000000000000CE
:1002300000000000441711241FBECFEFDFEFDEBF28
:10024000CDBF00E00CBF15E0A0E0B2E0EEEBF1E3C3
:1002500000E00BBF02C007900D92A630B107D9F79E
:1002600029E0A6E0B5E001C01D92AC36B207E1F787
:1002700011E0CBE1D1E000E006C021970109802F19
:10028000FE010E947117CA31D10780E00807A9F763
:100290000E94FC0F0C94DD180C940000FC0181E01E
:1002A00080838283148216821782108611861286BA
:1002B0001386148615861786118A128A138A148A61
:1002C000158A168A178A108E128E148E168E178E25
:1002D00010A211A212A213A214A215A217A210A674
:1002E00011A612A613A614A615A616A60895282FC1
:1002F00030E0F901E251FE4F9491F901E855FE4FCB
:1003000044912E593E4FF9012491222309F435C01E
:10031000992311F191509231F8F4E92FF0E08827F8
:10032000EB56FE4F8F4F0C947117C601CA01A701FF
:10033000BE01C201AC01CD01D301D701DD01E10154
:10034000E501EB01EF01AC01F301F901FD01809141
:1003500080008F7780938000E22FF0E0EE0FFF1F88
:10036000E85BFE4FA591B4918FB7F894EC916111C1
:1003700048C040954E234C938FBF089580918000D4
:100380008F7DE8CF80918000877FE4CF84B58F7721
:1003900084BDE2CF84B58F7DFBCF8091B0008F7795
:1003A0008093B000D9CF8091B0008F7DF9CF80913C
:1003B00090008F7780939000CFCF809190008F7DB9
:1003C000F9CF80919000877FF5CF8091A0008F7743
:1003D0008093A000C1CF8091A0008F7DF9CF809144
:1003E000A000877FF5CF809120018F778093200137
:1003F000B3CF809120018F7DF9CF80912001877F3D
:10040000F5CF4E2BB8CF8230910538F0880F991F69
:10041000880F991F05970197F1F708953FB7F89452
:100420008091640990916509A0916609B09167096E
:1004300026B5A89B05C02F3F19F00196A11DB11D3F
:100440003FBFBA2FA92F982F8827BC01CD01620F7B
:10045000711D811D911D42E0660F771F881F991F36
:100460004A95D1F70895AF92BF92CF92DF92EF9263
:10047000FF920F931F93CF93DF936C017B018B014E
:10048000040F151FEB015E01AE18BF08C017D1079E
:1004900059F06991D601ED91FC910190F081E02D28
:1004A000C6011995892B79F7C501DF91CF911F916D
:1004B0000F91FF90EF90DF90CF90BF90AF90089595
:1004C000FC01538D448D252F30E0842F90E0821B5A
:1004D000930B541710F0CF96089501970895FC01DF
:1004E000918D828D981761F0A28DAE0FBF2FB11D37
:1004F0005D968C91928D9F5F9F73928F90E008958F
:100500008FEF9FEF0895FC01918D828D981731F048
:10051000828DE80FF11D858D90E008958FEF9FEF9C
:100520000895FC01918D228D892F90E0805C9F4F72
:10053000821B91098F73992708958FEF97E00E948E
:10054000910221E0892B09F420E0822F0895FC011B
:10055000A48DA80FB92FB11DA35ABF4F2C91848D24
:1005600090E001968F739927848FA689B7892C9381
:10057000A089B1898C91837080648C93938D848DD4
:10058000981306C00288F389E02D80818F7D8083D7
:100590000895EF92FF920F931F93CF93DF93EC0197
:1005A00081E0888F9B8D8C8D98131AC0E889F9891A
:1005B000808185FF15C09FB7F894EE89FF8960831D
:1005C000E889F98980818370806480839FBF81E09E
:1005D00090E0DF91CF911F910F91FF90EF900895E0
:1005E000F62E0B8D10E00F5F1F4F0F731127E02EBB
:1005F0008C8D8E110CC00FB607FCFACFE889F989F3
:10060000808185FFF5CFCE010E94A702F1CFEB8D4F
:10061000EC0FFD2FF11DE35AFF4FF0829FB7F894C6
:100620000B8FEA89FB8980818062CFCFCF93DF93E4
:10063000EC01888D8823B9F0AA89BB89E889F989FA
:100640008C9185FD03C0808186FD0DC00FB607FC2F
:10065000F7CF8C9185FFF2CF808185FFEDCFCE0162
:100660000E94A702E9CFDF91CF91089580E090E04A
:10067000892B29F00E949D0281110E94000080E0D8
:1006800090E0892B49F080E090E0892B29F00E94CE
:10069000000081110E94000080E090E0892B49F069
:1006A00080E090E0892B29F00E94000081110E94D7
:1006B000000080E090E0892B49F080E090E0892BF9
:1006C00029F00E94000081110C9400000895FC01A3
:1006D000838182709081911104C0811116C01282B1
:1006E0000895811102C081E08283878181FD08C065
:1006F0008481882319F081E09085911180E08683C0
:10070000818581FD02C0848180870895FC018481F8
:100710009581A681B7814081518162817381811564
:1007200026E3920725E6A20724ECB2073CF0141654
:100730001506160617068CF4B7FF0FC04150510975
:100740006109710940835183628373839653A5467F
:10075000B44C84839583A683B78384819581A681D5
:10076000B781408151816281738181302AEC920787
:100770002AE9A2072BE3B2073CF477FF14C018164E
:1007800019061A061B067CF44F5F5F4F6F4F7F4FB1
:1007900040835183628373839A5CAA49BB438483F9
:1007A0009583A683B7830895880F991F880F991F93
:1007B000FC01EA5FFB4F828193818A309105B9F099
:1007C00040F48230910569F0039771F090E080E089
:1007D00008958B32910541F08733910511F00F9701
:1007E000A9F781E090E0089582E090E0089588E024
:1007F00090E00895880F991F880F991FDC01AA5F68
:10080000BB4FED91FC91119712968D919C918A307E
:10081000910579F030F40297029758F0F0E0E0E0AB
:1008200008C08B32910539F08733910521F00F977D
:10083000A9F7CF010895828181FF02C03396F9CFD5
:100840000190F081E02DF5CF20910D05209530E04D
:10085000F901EA5FFC4F908190952A5F3D4FD901E5
:100860008C9140910B0550910C0542505109EDE0DF
:10087000F5E031969F012D5035402417350770F46F
:1008800020819227292F30E0D901AA5FBC4F9C918B
:1008900098272A5F3D4FD9018C91EBCF089523E033
:1008A00030E030930C0520930B05EDE0F5E09091DE
:1008B000EC07908380588183628308950F931F9380
:1008C000582F577001E010E020E030E004C0000F26
:1008D000111F221F331F5A95D2F723E09695879553
:1008E0002A95E1F79927E091F607F091F70766233B
:1008F00021F0E091FC07F091FD07E80FF91F8081DE
:10090000442329F0082B00831F910F91089500952F
:100910000823F9CFCF93DF93CDB7DEB78B8588233C
:1009200021F081E09C85911101C080E0DF91CF91A1
:100930000895CF92DF92EF92FF920F931F93CF9380
:10094000DF93CDB7DEB789899A89AB89BC894D8998
:100950005E896F89788D098D1A8D2B8D3C8DCD8C9C
:10096000DE8CEF8CF8A080179107A207B30759F42B
:100970004C195D096E097F0914161506160617062F
:100980005CF081E00AC0801B910BA20BB30B181620
:1009900019061A061B06ACF780E0DF91CF911F9174
:1009A0000F91FF90EF90DF90CF9008952F923F929C
:1009B0004F925F926F927F928F929F92AF92BF926F
:1009C000CF92DF92EF92FF920F931F93CF93DF931B
:1009D000CDB7DEB7C354D1090FB6F894DEBF0FBE52
:1009E000CDBF10E000E0F801EE0FFF1FE458F84F14
:1009F0000190F081E02D309749F041E08081811134
:100A000001C040E060E0C8010E945E040F5F1F4F1C
:100A10000833110541F7E090ED07F090EE070CE385
:100A200017E019AF08AF8701005C1F4FF7012CE3F7
:100A300037E0D9018D919D919D01009729F0DC014E
:100A40008D919C919183808332960E171F0789F7B1
:100A5000D12CC12CF601EE0FFF1FE453F94F01908A
:100A6000F081E02D309749F041E08081811101C093
:100A700040E061E0C6010E945E04BFEFCB1ADB0AD2
:100A8000E8E3CE16D10431F74CE856E0E091F907DF
:100A9000F091FA079F01205C3F4FDA018D919D9103
:100AA000AD01009729F0DC018D919C9191838083A9
:100AB0003296E217F30789F7E4E6F6E0FBAFEAAF18
:100AC000F80108E6E00EF11C24E636E0D9018D912C
:100AD0009D919D01009729F0DC018D919C9191835E
:100AE00080833296EE16FF0689F7ECE3F6E0FDAF61
:100AF000ECAFE091F007F091F1079F01205B3F4FD1
:100B00000CE316E0D8018D919D918D01009749F07D
:100B1000DC014D915D916D917C91408351836283A5
:100B2000738334962E173F0769F7E4E1F6E0FFAFD1
:100B3000EEAFE091F307F091F4079F0120563F4F8D
:100B400084E196E0DC01CD90DD90CD01C114D104AB
:100B5000F1F0D601EC901196FC90119712960C9141
:100B6000129713961C91139714967C9114971596CF
:100B70006C91159716965C91169717964C91E0829A
:100B8000F182028313837483658356834783389687
:100B90002E173F07B9F610920C0510920B058091A5
:100BA000120690911306DC01ED91FC910084F18511
:100BB000E02D1995892B09F483C08091120690913C
:100BC0001306DC01ED91FC910084F185E02D19956F
:100BD00020910B0530910C05A0911206B0911306DF
:100BE000ED91FC9111970084F185E02D28173907CC
:100BF00068F4CD01199590930C0580930B058091B5
:100C00000F06909110060E940302D7CFCD011995CF
:100C1000813091400CF054C08091120690911306DF
:100C2000DC01ED91FC910084F185E02D199506978A
:100C30000CF446C04DE0842E45E0942E8401E090F3
:100C40000B05F0900C05C8018D5095408E159F0541
:100C500078F48091120690911306DC01ED91FC91DD
:100C60000284F385E02D1995F80181938F01E7CF78
:100C700010910E058FEB810F853080F00E942404C7
:100C80009701235F3A4FF901329740812150310992
:100C9000D9012C91342F2817390791F490910D0523
:100CA0008091EC07981709F4CDC0809112069091BD
:100CB0001306DC01ED91FC910680F781E02D19957A
:100CC0004091F6075091F70730E020E0F901EE0F70
:100CD000FF1FE458F84F0190F081E02D309799F014
:100CE000D90183E0B695A7958A95E1F7A40FB51FC2
:100CF0008C9190E0622F677002C0959587956A95F8
:100D0000E2F7817080832F5F3F4F28333105F1F682
:100D10008091ED079091EE07BC01605C7F4FDC0194
:100D2000E8ADF9AD21913191F9AFE8AF2115310569
:100D300031F04D915C911197F901518340831296E6
:100D40006A177B0769F7FB0188599F4FAAADBBADB6
:100D50004D915D91BBAFAAAF4115510529F020819E
:100D60003181DA012D933C9332968E179F0771F7EC
:100D7000E091F007F091F107CF01805B9F4FACADA0
:100D8000BDAD2D913D91BDAFACAF2115310551F0F9
:100D90004081518162817381D9014D935D936D933F
:100DA0007C93139734968E179F0749F7E091F307CA
:100DB000F091F407CF0180569F4FAEADBFADED90DF
:100DC000FD90BFAFAEAFE114F104F1F000811181ED
:100DD000728163815481458136812781D7010C93CB
:100DE00011961C93119712967C93129713966C93FD
:100DF000139714965C93149715964C931597169623
:100E00003C93169717962C9338968E179F07A9F642
:100E1000CD5BDF4F0FB6F894DEBF0FBECDBFDF91C5
:100E2000CF911F910F91FF90EF90DF90CF90BF90E7
:100E3000AF909F908F907F906F905F904F903F907A
:100E40002F900895B2E0EB1AF108F0920C05E092B1
:100E50000B0580910F0590911005382E292E60907A
:100E6000110570901205762467247624D090110520
:100E70002091130530E01F3009F48AC5A0F5133026
:100E800009F480C158F4113009F4F5C3123009F4A3
:100E900084C461E070E0812F90E022C0153009F435
:100EA00057C508F40BC51630A1F72091EF078091C4
:100EB000F20790E0880F991FE22FF0E08E0F9F1F3E
:100EC0004091F50704E0409FA0011124480F591FED
:100ED0002416350608F449C062E070E086E090E030
:100EE0000E944F044FC0123409F4E2C698F4103146
:100EF00009F462C2113469F684E090E090930C0525
:100F000080930B0510930E0510920F0583E38093D9
:100F1000100538C0143409F445C608F4DDC515348D
:100F200009F0B7CF8D3ABEED9B0709F0A8C7109224
:100F30000A0585E480930E058EE780930F0581E214
:100F4000E4EEF4E0DE01119601900D928A95E1F74E
:100F5000FE013196A0E1B5E081919D012D50354013
:100F6000882309F49AC78D93F7CF2E163F06D8F43D
:100F7000220C331CE091ED07F091EE07E20DF31D1A
:100F80007182608280910B0590910C0502968130F0
:100F9000914008F45AC580910E0564E070E090E03D
:100FA0000E944F0452C528163906F0F5A30170E0DF
:100FB00060E08091F0079091F10720FC1CC0910146
:100FC0002E1B3F0BF901EE0FFF1FEC7FF370E80FB4
:100FD000F91F80819181A281B381AA27BB27BA0121
:100FE00055274427842B952BA62BB72B80839183E1
:100FF000A283B383C7CFE095F095E20DF31DEE0F0A
:10100000FF1FEC7FF370E80FF91F60807180828012
:1010100093806624772446295729682979294083B3
:10102000518362837383AECF9101237033274301D1
:10103000B12CA12CC12CD12C7601E091F307F091B9
:10104000F4072115310549F5281A390A220C331CF9
:1010500038EF232237E03322E20DF31D5080618008
:1010600072801381B481A581940140E050E060E07A
:1010700070E080E090E000E30E947917252920834A
:10108000632A6182742A7282152B1383B62BB48370
:10109000A72BA5838683978375CF2130310541F532
:1010A000AFEF2A1A3A0A281A390A220C331CB8EF71
:1010B0002B22B7E03B22E20DF31D5080618072804D
:1010C0001381B681A7819401A501B601C70100E291
:1010D0000E947917522A5082632A6182742A72828E
:1010E000152B1383648375838B2B86839A2BD3CF25
:1010F0002230310529F502E0200E311C281A390A68
:10110000220C331C18EF212217E03122E20DF31DCF
:101110005080618074801581B681A7819401A501FA
:10112000B601C70100E10E947917522A5082632A52
:10113000618242835383762A7482172B1583D4CF1E
:1011400023E0220E311C281A390A220C331C38EFF6
:10115000232237E03322E20DF31D52814381348193
:10116000258196818781808291825A2952834B29D9
:1011700043833C2934832D2925839E2996838F29F7
:10118000878300CFC301019763E070E08D3791053D
:10119000C8F46101C60CD71C4091EF07E091F2073B
:1011A000F0E0EE0FFF1FE40FF11D8091F507A4E0C2
:1011B0008A9FC00111248E0F9F1FC816D90628F0E0
:1011C00062E070E083E090E08BCE660C771CC30198
:1011D000039690930C0580930B05ADE0B5E0119656
:1011E0009D012D5035402817390710F41C92F7CF78
:1011F00093E090930E05835080930F05E090F307E2
:10120000F090F407A090F007B090F107A091ED07DF
:10121000B091EE07BAA7A9A7A42FB0E0BBABAAABC9
:1012200083E090E02C014E1A5F0A3D0160947094B7
:10123000C214D30409F4A6CEAAA9BBA92A163B0658
:1012400060F49101220F331FA9A5BAA52A0F3B1FF5
:10125000D9018C9111963C911AC02E163F0670F55B
:1012600020FC22C0C101AAA9BBA98A1B9B0B880F25
:10127000991F8C7F93708A0D9B1DDC014D915D91B0
:101280006D917C91AB0166277727842F352FD40190
:1012900013963C93139714968C93B2E08B0E911C8B
:1012A0000FEF201A300AC4CF9301220D331D220FF5
:1012B000331F2C7F33702A0D3B1DCACF8101037071
:1012C00011270115110521F581010E1B1F0B000FC0
:1012D000111F087F17700E0D1F1DD8012C9111963C
:1012E0003C91119712964C91129713965C9113971B
:1012F00014966C91149715967C91159716968C916F
:10130000169717969C9100E30E949417822FBFCFE7
:101310000130110511F50E1B1F0B020D131D000FDF
:10132000111F087F17700E0D1F1DD8012C911196EB
:101330003C91119712964C91129713965C911397CA
:1013400014966C91149715967C91159716968C911E
:10135000169717969C9100E2D7CF0230110511F530
:101360000E1B1F0B020D131D000F111F087F17709E
:101370000E0D1F1DD8012C9111963C9111971296BC
:101380004C91129713965C91139714966C91149745
:1013900015967C91159716968C91169717969C9199
:1013A00000E1B2CF9201220D331D220F331F287F9F
:1013B00037702E0D3F1D4CCFC30101978B37910520
:1013C00030F4C301880F991F2817390729F063E00B
:1013D00070E080E190E084CDD101A60DB71DBDABDA
:1013E000ACAB8091EF074090F207512C440C551C98
:1013F000A82EB12C4A0C5B1C2091F507B4E02B9F62
:1014000090011124240D351DECA9FDA9E217F30765
:1014100018F062E070E0DDCF26E030E030930C059C
:1014200020930B0510930E0530920F0520921005A6
:1014300010921105609212056090F3077090F40706
:10144000C090F007D090F107DFAACEAA4091ED0737
:101450005091EE079101220F331F7A01E20EF31E25
:10146000FBAAEAAAD101A419B509C50180959095F6
:10147000FC01E40DF51D2296FFAFEEAF229762014D
:10148000CA18DB082496DFAECEAE2497ECA8FDA8E0
:101490002E143F0409F4D9C2F40147818085542FEA
:1014A000482F2A143B0488F4EAA9FBA951834083FE
:1014B000EAA9FBA93296FBABEAAB1196FFEF2F1A14
:1014C0003F0A02E0800E911CE1CF24143504C8F5D8
:1014D00070E060E020FC20C02496EEADFFAD2497C4
:1014E000EA0FFB1FEE0FFF1FEC7FF370CEA8DFA803
:1014F000EC0DFD1D008111812281338122273327CC
:10150000BA0155274427402B512B622B732B408364
:10151000518362837383CCCF2296EEADFFAD2297C9
:10152000EA0FFB1FEE0FFF1FEC7FF370EEA8FFA882
:10153000EE0DFF1D008111812281338100271127CB
:10154000E2CFC101837099276A01F12CE12C00E000
:1015500010E09801C9A6DAA6EBA6FCA60DA71EA767
:101560002FA738ABFD01009741F5EE0FFF1FE87F75
:10157000F770E60DF71DD080D9AAC180D280E38034
:10158000F480158129A53AA540E050E060E070E0C4
:1015900080E090E000E30E94791709A9202B2083C6
:1015A0003C2931834D2942835E295383F62AF482F4
:1015B000172B1583868397837BCF8130910541F567
:1015C0003196EE0FFF1FE87FF770E60DF71D1081D3
:1015D00019ABC180D280E380F680178129A53AA596
:1015E00040E050E060E070E080E090E000E20E94C7
:1015F000791709A9202B20833C2931834D29428367
:10160000E52AE382648375838F298683912BD3CF68
:10161000029729F53296EE0FFF1FE87FF770E60D6F
:10162000F71D108119ABC180D480E580F680178149
:1016300029A53AA540E050E060E070E080E090E04D
:1016400000E10E94791709A9202B20833C293183CE
:1016500042835383D62AD482E72AE582D5CF3396B4
:10166000EE0FFF1FE87FF770E60DF71D19A5108339
:101670002AA521831DCFC301019763E070E0803D5F
:10168000974068F52091F807C101860D971D62E02B
:1016900070E02817190618F1C30113E09695879595
:1016A0001A95E1F79C012D5F3F4F30930C05209375
:1016B0000B05930127703327232B29F00496909371
:1016C0000C0580930B0580910B0590910C05EDE0C6
:1016D000F5E0813021E0920728F064E070E081E0DD
:1016E00090E0FECB31969F012D50354028173907E9
:1016F00010F41082F7CF91E090930E058350809301
:101700000F050091F6071091F70770E060E020E008
:10171000C12CD12C7601C394D701C601022E04C07E
:10172000880F991FAA1FBB1F0A94D2F789A79AA7EF
:10173000ABA7BCA7FB0133E0F695E7953A95E1F737
:10174000E05FFA4F3081A101A3E056954795AA9535
:10175000E1F74F715527400F511FDA014C9150E0CE
:10176000B22DB77002C055954795BA95E2F789A595
:1017700040FF0FC0832B80832F5F283009F420E0C7
:10178000EFEF2E1A3E0A6F5F7F4F6616770621F63F
:10179000F9CB809538233083EFCFC301019763E005
:1017A00070E0803D974068F52091FE07C101860DED
:1017B000971D62E070E02817190618F1C30123E0B5
:1017C000969587952A95E1F79C012D5F3F4F3093C1
:1017D0000C0520930B05930127703327232B29F049
:1017E000049690930C0580930B0580910B059091C6
:1017F0000C05EDE0F5E0813001E0900728F064E0B1
:1018000070E082E090E06CCB31969F012D50354026
:101810002817390710F41082F7CF92E090930E0545
:10182000835080930F056091FC077091FD0750E095
:1018300040E010E0C12CD12C7601C394D701C60141
:10184000012E04C0880F991FAA1FBB1F0A94D2F74C
:1018500089A79AA7ABA7BCA7FA0103E0F695E7957D
:101860000A95E1F7E05FFA4F0081910183E0369538
:1018700027958A95E1F7260F372F311DD9012C9135
:1018800030E0B22DB77002C035952795BA95E2F7D2
:1018900089A520FF0FC0802B80831F5F183009F4BB
:1018A00010E0EFEF2E1A3E0A4F5F5F4F6416750689
:1018B00029F668CB809508230083EFCFC3010197F9
:1018C00063E070E08D37910550F42091FB07C10172
:1018D000860D971D2817190628F462E070E084E051
:1018E00090E0FECAC301880F991F039690930C05E0
:1018F00080930B05EDE0F5E031969F012D503540CA
:101900002817390710F41082F7CF94E090930E0552
:10191000835080930F05220C331CE091F907F0915E
:10192000FA07E20DF31D01E0601A710812E0810E62
:10193000911C2FEF6216720609F424CB80819181ED
:101940003296D40111969C93119712968C93EBCFFB
:101950006114BFEF7B0629F063E070E0611471044D
:1019600049F48091F8078150990B8215930528F46A
:1019700062E070E085E090E0B3CA41E06114EFEF0F
:101980007E0609F040E060E0C1010E945E04FACAF0
:10199000A301F3E056954795FA95E1F7842FB3013B
:1019A00067707727672B11F081E0840FA301415006
:1019B0005109403B574018F48217130629F063E0A1
:1019C00070E08FE090E08CCA2091F807C101860D8D
:1019D000971D2817190618F462E070E0F2CF86E030
:1019E00090E090930C0580930B058FE080930E059B
:1019F00030920F0520921005709211056092120529
:101A000010E000E0F12CF80173E0F695E7957A9587
:101A1000E1F7E35FFA4F478150E00F2C02C0559584
:101A200047950A94E2F7417060E0C101800F911F71
:101A30000E945E04F394E8E0CE2EFC1001C0F12C6D
:101A40000F5F1F4F60167106F1F600910B051091A4
:101A50000C05780122E0E20EF11CF0920C05E092F8
:101A60000B050E942404F801E35FFA4F9083818301
:101A70008091110687FD09C061E00E947701809185
:101A80000D0690910E060E9403028091120690911D
:101A90001306DC01ED91FC910280F381E02DA7019A
:101AA0006DE075E019958091120690911306DC01A6
:101AB000ED91FC910680F781E02D199580910D063E
:101AC00090910E060E9403028091110687FDF8C8CE
:101AD00060E00E947701F4C803E32016310408F0A7
:101AE00056C013E36116710408F051C06214730408
:101AF00008F44DC0710168E1A62E65E0B62ED12C28
:101B0000C12CC7010E94D4034C018601080F191F84
:101B1000C8010B9681309140C0F5C7010E94FA03BD
:101B2000A401BC01C5010E94D418A80CB91CC701AE
:101B30000196680117016816790628F5C80107960D
:101B400090930C0580930B0583E480930E058EE73C
:101B500080930F0510921005209211058091520973
:101B600090915309209154093091550930931205F1
:101B70002093130590931405809315051093160573
:101B800000931705FFC97C01BCCF8601D7CF83E046
:101B900090E090930C0580930B0583E480930E05F1
:101BA00081E828C035E123163104D8F4CE0101962E
:101BB0002C01FC01D12CC12C92E0890E911C2C141B
:101BC0003D04D9F0D40112968C91129713969C91F2
:101BD00089279827892781939193BFEFCB1ADB0A36
:101BE000EBCF83E090E090930C0580930B0510936E
:101BF0000E0582E880930F05C5C9B12CA12C19A64A
:101C0000712C612C0BE010E0CA14DB0469F1F201C5
:101C1000E190F1902F01F3E3EF16F10440F083E03F
:101C200090E090930C0580930B0584E4B7CFC70137
:101C30000E94D4034C011801280E391E21E02216FF
:101C4000320690F4C7010E94FA03A401BC01C80146
:101C5000835F9A4F0E94D418680C791C3FEFA31A37
:101C6000B30AE9A68101D0CF10930C0500930B05B0
:101C700084E480930E058EE780930F051092100583
:101C8000C9A4C092110580915209909153092091E5
:101C90005409309155093093120520931305909300
:101CA00014058093150570921605609217056AC990
:101CB00003E32016310450F480911205909113052E
:101CC0009827892798278A3F910540F083E090E084
:101CD00090930C0580930B0582E460CF8101000F87
:101CE000111F000F111FF801EA5FFB4FE280F38024
:101CF00080910A058130F9F0F801EA5FFB4F00811D
:101D00001181D11038C0FAE0EF16F10409F4B1C026
:101D100008F099C032E0E316F10409F4A2C083E0B0
:101D2000E816F104F1F5D80112968C9112978D7F87
:101D300012968C9336C020E1E216F104E9F2C1015B
:101D40000E94D4039C0136952795FC01E35FFA4F6E
:101D5000ADE0B5E03197CD018D50954082179307E6
:101D600058F617968C911797978117969C9317970B
:101D700087831196EFCFC1010E94D4036C013AE032
:101D8000E316F104F1F1C0F492E0E916F10459F11F
:101D9000A60164E175E0C801A3E0EA16F10409F4C4
:101DA0004BC083E090E090930C0580930B0582E498
:101DB00080930E058EE71ECFBBE2EB16F10479F19E
:101DC000E7E3EE16F10459F1FFE0EF16F10449F7ED
:101DD000A60164E175E0C8010E94D418F801818170
:101DE00082608183DECFA60164E175E0C8010E94B4
:101DF000D418D80111968C911197826011968C930A
:101E0000D0CFAC0164E175E0C8010E94D418D801BC
:101E100018968C911897826018968C93C2CFA60161
:101E200064E175E0D8018D919C910E94D418A601BF
:101E300064E175E0C80103960E94D418F80182811C
:101E400082608283AECF9BE2E916F10471F0A7E3D2
:101E5000EA16F10409F467CFBFE0EB16F10409F0CC
:101E6000A0CFF80181818D7FBCCFF80182818D7F69
:101E7000E8CFD80118968C9118978D7FCDCF8E3DE5
:101E80009D4A21F481E080930A0553C883E090E0E5
:101E900090930C0580930B054CC830930C05209350
:101EA0000B0570C81F920F920FB60F9211242F933B
:101EB0003F938F939F93AF93BF93809160099091CD
:101EC0006109A0916209B091630930915F0923E033
:101ED000230F2D3758F50196A11DB11D20935F09E1
:101EE0008093600990936109A0936209B09363099C
:101EF0008091640990916509A0916609B091670984
:101F00000196A11DB11D8093640990936509A0936A
:101F10006609B0936709BF91AF919F918F913F91EF
:101F20002F910F900FBE0F901F90189526E8230F4A
:101F30000296A11DB11DD2CF1F920F920FB60F9224
:101F400011240BB60F922F933F934F935F936F9390
:101F50007F938F939F93AF93BF93EF93FF938FEFF5
:101F600097E00E94A702FF91EF91BF91AF919F91DF
:101F70008F917F916F915F914F913F912F910F9032
:101F80000BBE0F900FBE0F901F9018951F920F92CF
:101F90000FB60F9211240BB60F922F938F939F932E
:101FA000EF93FF93E0910F08F09110088081E0918A
:101FB0001508F091160882FD1DC0908180911808C7
:101FC0008F5F8F7320911908821741F0E0911808F4
:101FD000F0E0E150F84F958F80931808FF91EF9152
:101FE0009F918F912F910F900BBE0F900FBE0F906E
:101FF0001F9018958081F2CFCF93DF93CDB7DEB7D6
:10200000C954D1090FB6F894DEBF0FBECDBF789486
:1020100084B5826084BD84B5816084BD85B58260ED
:1020200085BD85B5816085BD80916E00816080939E
:102030006E00109281008091810082608093810007
:102040008091810081608093810080918000816017
:10205000809380008091B10084608093B100809172
:10206000B00081608093B000809191008260809385
:102070009100809191008160809391008091900007
:102080008160809390008091A10082608093A10084
:102090008091A10081608093A1008091A000816067
:1020A0008093A00080912101826080932101809122
:1020B00021018160809321018091200181608093C2
:1020C000200180917A00846080937A0080917A0068
:1020D000826080937A0080917A00816080937A0098
:1020E00080917A00806880937A001092C10011E09C
:1020F00010939C0810939E081092A0081092A108BB
:102100001092A2081092A3081092A4081092A50899
:102110001092A6081092A7081092A9081092AB0876
:102120008DEA98E00E944E018DED98E00E944E01EC
:1021300010920D0910930F091093110910921309B1
:1021400010921509109217091092190910921C0982
:1021500010921B0910921E09109220091092230957
:10216000109222091093250910932709109229092A
:1021700010922B0910922D0980912E098460809372
:102180002E0910932F0910933109109233091092E0
:102190003509109237098091380984608093380995
:1021A00049E055E050933A094093390910920905E6
:1021B00028E035E030933E0920933D091092080550
:1021C00086E095E0909342098093410910920705BB
:1021D00010920605109246091092480950937D0707
:1021E00040937C0730937F0720937E0790933D07B1
:1021F00080933C07E0910F08F091100882E0808303
:10220000E0910B08F0910C081082E0910D08F0911C
:102210000E0880E1808310921708E0911308F09176
:10222000140886E08083E0911108F0911208808103
:1022300080618083E0911108F091120880818860AC
:102240008083E0911108F09112088081806880837A
:10225000E0911108F091120880818F7D80838FEFCB
:1022600097E090931306809312068FEF80931106E8
:102270008EEE92E09093100680930F0681E49AE030
:1022800090930E0680930D061093EC0784E38093E1
:10229000EF0784E18093F2078093F50788E380934A
:1022A000F80790E29093FB078093FE0787E090E0A9
:1022B0000E94AF179093F7078093F607009709F4F1
:1022C00051C017E0FC01212F11922A95E9F788E609
:1022D00090E00E94AF179093EE078093ED07009770
:1022E00009F440C028E6FC0111922A95E9F780E53F
:1022F00090E00E94AF179093F1078093F00700974A
:1023000089F120E5FC0111922A95E9F780EA90E035
:102310000E94AF179093F4078093F307009711F191
:1023200020EAFC0111922A95E9F787E090E00E94EB
:10233000AF179093FD078093FC07009799F0FC017D
:1023400011921A95E9F780E490E00E94AF179093FC
:10235000FA078093F907009729F020E4FC01119215
:102360002A95E9F710E000E0C801880F991F9C0149
:102370002458384F7901F90180819181892B49F4E2
:1023800081E090E00E94AF17F70191838083FC0108
:1023900010820F5F1F4F0833110531F70091ED07D1
:1023A0001091EE07ECE3F7E090E080E021913191AD
:1023B000232B39F4DF0112979801280F391F2D9331
:1023C0003C9302968034910589F7F12CE12CC701EA
:1023D000880F991F9C012453394F5901F9018081BD
:1023E0009181892B49F481E090E00E94AF17F501BB
:1023F00091838083FC011082FFEFEF1AFF0A28E32C
:10240000E216F10421F72091F9073091FA07ECE880
:10241000F6E090E080E041915191452B39F4DF01E5
:102420001297A901480F591F4D935C93029680346F
:10243000910589F7E4E6F6E090E080E0005C1F4F4C
:1024400021913191232B39F4DF0112979801280F44
:10245000391F2D933C9302968832910589F740915C
:10246000F0075091F107ECE3F6E090E080E0219175
:102470003191232B59F4DF0112979C01220F331F56
:10248000220F331F240F351F2D933C930196843167
:10249000910569F74091F3075091F407E4E1F6E004
:1024A00090E080E021913191232B61F4DF011297BC
:1024B0009C0163E0220F331F6A95E1F7240F351F5B
:1024C0002D933C9301968431910561F780E29EE45F
:1024D000A0E0B0E08093570990935809A093590960
:1024E000B0935A090E940E0260935B0970935C09D5
:1024F00080935D0990935E0911E084E6282E312CCB
:1025000002E0812C91EE992E95EFA92E95E0B92E3F
:102510000E940E0240905B0950905C0960905D093A
:1025200070905E09641975098609970940905709EA
:10253000509058096090590970905A0964157505B2
:102540008605970508F4F5C08091520990915309CA
:10255000A0915409B09155090196A11DB11D809318
:10256000520990935309A0935409B093550980914F
:10257000A80881FD10C01092A0081092A108109226
:10258000A2081092A3088092A4089092A508A09295
:10259000A608B092A70880919F08827090919C082D
:1025A0009111E0C0811102C010929E0880914709EC
:1025B00081FD19C09091A90880913B0981FFAAC3B0
:1025C00080913C091F929F938F931F920F931F92AC
:1025D0001F921F930E948A04809346090FB6F894B5
:1025E000DEBF0FBECDBF8091490981FD19C090911A
:1025F000A90880913F0981FF93C3809140091F92F0
:102600009F938F931F920F931F921F921F930E946D
:102610008A04809348090FB6F894DEBF0FBECDBF81
:102620008091140981FD04C08091460980931309AB
:102630008091160981FD04C0809148098093150995
:1026400080911D0981FD04C030921C0920921B0954
:1026500080911209827090910F09911167C38111C5
:1026600002C0109211098091430981FD0AC0809136
:10267000220990912309E0914109F0914209918347
:10268000808380914E0990914F09A0915009B0919B
:102690005109AC01BD01535D6E4C7E4F4115EAEC12
:1026A0005E07EAE96E07EBE37E0708F0C6C34093D6
:1026B0004E0950934F0960935009709351090E943D
:1026C000D60480915609811118C0109356090E94B2
:1026D0000E02409057095090580960905909709027
:1026E0005A09641975098609970960935B09709303
:1026F0005C0980935D0990935E0980915B099091DC
:102700005C09A0915D09B0915E0940915709509113
:1027100058096091590970915A09840F951FA61F95
:10272000B71F80935B0990935C09A0935D09B093F8
:102730005E090E940E0240905B0950905C09609017
:102740005D0970905E096419750986099709603101
:1027500077428105910510F00E94D60488950E9469
:102760003603D6CE811102C010939E088091B20824
:1027700081FD04C08091AB088093B1088091BB08B3
:1027800081FD09C088E0E0EAF8E0A3EBB8E0019041
:102790000D928A95E1F78091B00882709091AD0812
:1027A000911140C0811102C01092AF088091AA0817
:1027B00081FD04C08091BC088093A90880910E0916
:1027C00081FD07C081E09091BC08911180E0809369
:1027D0000D098091E20881FD04C080910D0980936C
:1027E000E1088091EB0881FD09C088E0E0EAF8E0AB
:1027F000A3EEB8E001900D928A95E1F78091E00890
:1028000082709091DD08911148C1811102C010922F
:10281000DF088091AC0881FDC9CE8091EC088093DF
:10282000AB08C4CE811102C01093AF088091D308C9
:1028300081FD09C088E0EAE4F9E0ABECB8E0019082
:102840000D928A95E1F73091C7082A963FAF2A97F3
:102850008091B10831111EC09091C90891110DC32A
:102860008823D1F08091C80881FF1093C708809118
:10287000BD0881FF1092BC088091DC0881FD2AC050
:1028800088E0EBECF8E0A4EDB8E001900D928A95B9
:10289000E1F720C0811127C08091C60881FD10C0DA
:1028A0001092BE081092BF081092C0081092C10882
:1028B0001092C2081092C3081092C4081092C50862
:1028C0008091BD0881FF1092BC088091C80881FFEB
:1028D0001092C7088091CA0881FD68CF8091B10825
:1028E0008093C90863CF2A968FAD2A97813091F7DC
:1028F0004090D8085090D9086090DA087090DB08B2
:102900008091B7089091B808A091B908B091BA0821
:102910004091B3085091B4086091B5087091B60821
:10292000C090D408D090D508E090D608F090D70891
:102930004C0D5D1D6E1D7F1D498B5A8B6B8B7C8BE7
:10294000840D951DA61DB71D8D8B9E8BAF8BB88FEB
:10295000CE0141960E94860388E0FE017196DE0159
:10296000D99601900D928A95E1F788E0FE01F996DB
:10297000DE01AF5BBF4F01900D928A95E1F700D069
:1029800000D01F921F92ADB7BEB7119688E0EBEC56
:10299000F8E001900D928A95E1F700D000D01F92E7
:1029A0001F92ADB7BEB7119688E0FE01EF5BFF4FF7
:1029B00001900D928A95E1F71F920F931F921F923B
:1029C0002A969FAD2A979F930E9499040FB6F89478
:1029D000DEBF0FBECDBF9091C608882391F08091D5
:1029E000C80881FF0093C7088091BD0881FF10933C
:1029F000BC0888E0E3EBF8E091FD6CCFAEEBB8E00B
:102A000044CF91FD67CF8091CF089091D008A091DD
:102A1000D108B091D2084090D8085090D908609061
:102A2000DA087090DB084091CB085091CC08609197
:102A3000CD087091CE08C090D408D090D508E09011
:102A4000D608F090D7084C195D096E097F09498BAB
:102A50005A8B6B8B7C8B84199509A609B7098D8BD2
:102A60009E8BAF8BB88FCE0141960E94860388E083
:102A7000FE017196DE01999601900D928A95E1F71B
:102A800088E0FE01B996DE01D19601900D928A95FB
:102A9000E1F788E0FE01F196B1CF811102C01093F9
:102AA000DF088091030981FD09C088E0EAE4F9E0CC
:102AB000ABEFB8E001900D928A95E1F7F091F7083D
:102AC0002A96FFAF2A978091E108F1111AC09091E0
:102AD000F908992309F4D4C1811115C08091F8082F
:102AE00081FF1093F70880910C0981FD25C088E0D3
:102AF000EBEFF8E0A4E0B9E001900D928A95E1F7E0
:102B00001BC0882391F18091F60881FD10C01092BE
:102B1000EE081092EF081092F0081092F10810924F
:102B2000F2081092F3081092F4081092F5088091C0
:102B3000F80881FF1092F7088091ED0881FD0CC024
:102B40008091E1088111E4C081E09091F708913013
:102B500009F080E08093EC088091FA0881FD59CE5D
:102B60008091E1088093F90854CE2A962FAD2A97D8
:102B7000213011F78091080990910909A0910A0963
:102B8000B0910B094090E7085090E8086090E90880
:102B90007090EA084091E3085091E4086091E508DC
:102BA0007091E608C0900409D0900509E0900609EC
:102BB000F09007094C0D5D1D6E1D7F1D498B5A8BD2
:102BC0006B8B7C8B840D951DA61DB71D8D8B9E8BED
:102BD000AF8BB88FCE0141960E94860388E0FE013C
:102BE0007196DE01599601900D928A95E1F788E081
:102BF000FE017996DE01919601900D928A95E1F79A
:102C000000D000D01F921F92ADB7BEB7119688E0DA
:102C1000EBEFF8E001900D928A95E1F700D000D03B
:102C20001F921F92ADB7BEB7119688E0FE01B19614
:102C300001900D928A95E1F71F920F931F921F92B8
:102C40002A963FAD2A973F930E9499040FB6F894B5
:102C5000DEBF0FBECDBF9091F608882369F080914A
:102C6000F80881FF0093F70888E0E3EEF8E091FDB3
:102C700063CFAEEEB8E040CF91FD5ECF8091FF080C
:102C800090910009A0910109B091020940900809B2
:102C90005090090960900A0970900B094091FB0857
:102CA0005091FC086091FD087091FE08C0900409E5
:102CB000D0900509E0900609F09007094C195D09CC
:102CC0006E097F09498B5A8B6B8B7C8B8419950914
:102CD000A609B7098D8B9E8BAF8BB88FCE0141961D
:102CE0000E94860388E0FE017196DE011196019034
:102CF0000D928A95E1F788E0FE013196DE01199682
:102D000001900D928A95E1F788E0FE013996B1CFE6
:102D100081E020CFE0913909F0913A09808152CCCD
:102D2000E0913D09F0913E09808169CC811102C09A
:102D30001093110980912A0981FD04C08091150921
:102D40008093290985E299E00E9467038091340904
:102D500081FD04C080911309809333098FE299E0CB
:102D60000E94670380911709882359F180912409F3
:102D700081FD04C0109223091092220980911F093D
:102D800081FD0FC081E040912209509123092091DB
:102D90001B0930911C09421753070CF480E0809303
:102DA0001E098091210981FD5ECC81E020912209DC
:102DB00030912309121613060CF480E08093200949
:102DC00052CC80911909882369F08091240981FDF2
:102DD000D5CF80911B0990911C0990932309809372
:102DE0002209CCCF80912B09909135099923A1F02C
:102DF0008111C4CF809122099091230920911B0950
:102E000030911C09821793070CF0B8CF2091240948
:102E1000019621FFE2CFB2CF882309F4AFCF809192
:102E2000220990912309181619060CF0A7CF2091BA
:102E3000240921FDA3CF0197D0CF40914A09509199
:102E40004B0960914C0970914D099D59A946BA43AF
:102E500080934E0990934F09A0935009B093510964
:102E60004F5F5F4F6F4F7F4F40934A0950934B091D
:102E700060934C0970934D0922CC81112BCD0CCD60
:102E8000882309F459CE3FCEEFEFF7E01382128288
:102E900088EE93E0A0E0B0E084839583A683B783B7
:102EA00086ED94E09183808385EC90E0958784871C
:102EB00084EC90E09787868780EC90E0918B808B04
:102EC00081EC90E0938B828B82EC90E0958B848BED
:102ED00086EC90E0978B868B118E128E138E148E5B
:102EE0000895EE0FFF1F881F8BBF0790F691E02D0E
:102EF0001994002E083090F0982F872F762F652F89
:102F0000542F432F322F22270850F4CF220F331F84
:102F1000441F551F661F771F881F991F0A95B2F718
:102F2000002D089597FD1094002E083098F0085059
:102F3000232F342F452F562F672F782F892F912D30
:102F4000F4CF1594979587957795679557954795FD
:102F5000379527950A95AAF71124002D08950F9308
:102F60001F93CF93DF938230910510F482E090E0BD
:102F7000E0916A09F0916B0930E020E0B0E0A0E058
:102F8000309799F42115310509F44AC0281B390BF3
:102F900024303105D8F58A819B816115710589F14D
:102FA000FB0193838283FE0111C040815181028124
:102FB000138148175907E0F04817590799F41097FB
:102FC00061F012960C93129713961C933296CF01D0
:102FD000DF91CF911F910F91089500936A0910938B
:102FE0006B09F4CF2115310551F04217530738F022
:102FF000A901DB019A01BD01DF01F801C1CFEF0199
:10300000F9CF90936B0980936A09CDCFFE01E20F4F
:10301000F31F819391932250310939832883D7CFAD
:103020002091680930916909232B41F42091020213
:1030300030910302309369092093680920910002BE
:10304000309101022115310541F42DB73EB7409171
:10305000040250910502241B350BE0916809F091A0
:103060006909E217F307A0F42E1B3F0B2817390755
:1030700078F0AC014E5F5F4F2417350748F04E0FD4
:103080005F1F5093690940936809819391939FCF83
:10309000F0E0E0E09CCFCF93DF930097E9F0FC01F4
:1030A000329713821282A0916A09B0916B09ED01E7
:1030B00030E020E01097A1F420813181820F931F2E
:1030C00020916809309169092817390709F061C012
:1030D000F0936909E0936809DF91CF910895EA01BF
:1030E000CE17DF07E8F54A815B819E014115510546
:1030F000B1F7E901FB83EA8349915991C40FD51FC8
:10310000EC17FD0761F4808191810296840F951F71
:10311000E90199838883828193819B838A83F0E08C
:10312000E0E012968D919C9113970097B9F52D913F
:103130003C911197CD010296820F931F209168094F
:10314000309169092817390739F6309751F51092EF
:103150006B0910926A09B0936909A0936809BCCF02
:10316000D383C28340815181840F951FC817D9072B
:1031700061F44E5F5F4F88819981480F591F5183D9
:1031800040838A819B81938382832115310509F0D5
:10319000B0CFF0936B09E0936A099ECFFD01DC018B
:1031A000C0CF13821282D7CFFB01DC0102C0019095
:0E31B0000D9241505040D8F70895F894FFCF8B
:1031BE0000006C09800000C0C101C30302C2C60634
:1031CE0007C705C5C404CC0C0DCD0FCFCE0E0ACA51
:1031DE00CB0BC90908C8D81819D91BDBDA1A1EDEA1
:1031EE00DF1FDD1D1CDC14D4D515D71716D6D21251
:1031FE0013D311D1D010F03031F133F3F23236F661
:10320E00F737F53534F43CFCFD3DFF3F3EFEFA3A10
:10321E003BFB39F9F83828E8E929EB2B2AEAEE2EA0
:10322E002FEF2DEDEC2CE42425E527E7E62622E210
:10323E00E323E12120E0A06061A163A3A26266A660
:10324E00A767A56564A46CACAD6DAF6F6EAEAA6AD0
:10325E006BAB69A9A86878B8B979BB7B7ABABE7E20
:10326E007FBF7DBDBC7CB47475B577B7B67672B2D0
:10327E00B373B17170B05090915193535292965660
:10328E005797559594549C5C5D9D5F9F9E5E5A9A90
:10329E009B5B99595898884849894B8B8A4A4E8E20
:1032AE008F4F8D4D4C8C4484854587474686824290
:1032BE0043834181804000C1814001C0804101C0F3
:1032CE00804100C1814001C0804100C1814000C1E8
:1032DE00814001C0804101C0804100C1814000C1D8
:1032EE00814001C0804100C1814001C0804101C0C8
:1032FE00804100C1814001C0804100C1814000C1B8
:10330E00814001C0804100C1814001C0804101C0A7
:10331E00804100C1814000C1814001C0804101C097
:10332E00804100C1814001C0804100C1814000C187
:10333E00814001C0804101C0804100C1814000C177
:10334E00814001C0804100C1814001C0804101C067
:10335E00804100C1814000C1814001C0804101C057
:10336E00804100C1814001C0804100C1814000C147
:10337E00814001C0804100C1814001C0804101C037
:10338E00804100C1814001C0804100C1814000C127
:10339E00814001C0804101C0804100C1814000C117
:1033AE00814001C0804100C1814001C0804101C007
:1033BE00804100C181409C080F009E080F00A008AC
:1033CE000A00A9080F00AB080F00AD080F00AF08E8
:1033DE000F00B1080F00B3080A00BC080F00BE08AA
:1033EE000A00C7080200C9080F00CB080A00D4085B
:1033FE000A00DD080F00DF080F00E1080F00E308E8
:10340E000A00EC080F00EE080A00F7080200F9089F
:10341E000F00FB080A0004090A000D090F000F092E
:10342E000F0011090F0013090F0015090F001709DE
:10343E000F0019090F001B0903001E090F002009B8
:10344E000F002209030025090F0027090F00290983
:10345E000F002B090F002D090F002F090F00310946
:10346E000F0033090F0035090F0037090F00390916
:10347E0037003D09370041092B0046090F00480966
:10348E000F0000000000C902330260021603910211
:10349E006F028302323638656139396537396131E9
:1034AE006338376436353134353131646138323909
:0634BE0039613731000006
:00000001FF
